{
  "address": "0xE232fE679077ae206f8a398E7f101499F70a76F4",
  "abi": [
    {
      "inputs": [
        {
          "internalType": "address",
          "name": "emissionManager",
          "type": "address"
        }
      ],
      "stateMutability": "nonpayable",
      "type": "constructor"
    },
    {
      "anonymous": false,
      "inputs": [
        {
          "indexed": true,
          "internalType": "address",
          "name": "asset",
          "type": "address"
        },
        {
          "indexed": true,
          "internalType": "address",
          "name": "reward",
          "type": "address"
        },
        {
          "indexed": true,
          "internalType": "address",
          "name": "user",
          "type": "address"
        },
        {
          "indexed": false,
          "internalType": "uint256",
          "name": "assetIndex",
          "type": "uint256"
        },
        {
          "indexed": false,
          "internalType": "uint256",
          "name": "userIndex",
          "type": "uint256"
        },
        {
          "indexed": false,
          "internalType": "uint256",
          "name": "rewardsAccrued",
          "type": "uint256"
        }
      ],
      "name": "Accrued",
      "type": "event"
    },
    {
      "anonymous": false,
      "inputs": [
        {
          "indexed": true,
          "internalType": "address",
          "name": "asset",
          "type": "address"
        },
        {
          "indexed": true,
          "internalType": "address",
          "name": "reward",
          "type": "address"
        },
        {
          "indexed": false,
          "internalType": "uint256",
          "name": "oldEmission",
          "type": "uint256"
        },
        {
          "indexed": false,
          "internalType": "uint256",
          "name": "newEmission",
          "type": "uint256"
        },
        {
          "indexed": false,
          "internalType": "uint256",
          "name": "oldDistributionEnd",
          "type": "uint256"
        },
        {
          "indexed": false,
          "internalType": "uint256",
          "name": "newDistributionEnd",
          "type": "uint256"
        },
        {
          "indexed": false,
          "internalType": "uint256",
          "name": "assetIndex",
          "type": "uint256"
        }
      ],
      "name": "AssetConfigUpdated",
      "type": "event"
    },
    {
      "anonymous": false,
      "inputs": [
        {
          "indexed": true,
          "internalType": "address",
          "name": "boostConfig",
          "type": "address"
        }
      ],
      "name": "BoostConfigUpdated",
      "type": "event"
    },
    {
      "anonymous": false,
      "inputs": [
        {
          "indexed": true,
          "internalType": "address",
          "name": "user",
          "type": "address"
        },
        {
          "indexed": true,
          "internalType": "address",
          "name": "claimer",
          "type": "address"
        }
      ],
      "name": "ClaimerSet",
      "type": "event"
    },
    {
      "anonymous": false,
      "inputs": [
        {
          "indexed": true,
          "internalType": "address",
          "name": "reward",
          "type": "address"
        },
        {
          "indexed": true,
          "internalType": "address",
          "name": "rewardOracle",
          "type": "address"
        }
      ],
      "name": "RewardOracleUpdated",
      "type": "event"
    },
    {
      "anonymous": false,
      "inputs": [
        {
          "indexed": true,
          "internalType": "address",
          "name": "user",
          "type": "address"
        },
        {
          "indexed": true,
          "internalType": "address",
          "name": "reward",
          "type": "address"
        },
        {
          "indexed": true,
          "internalType": "address",
          "name": "to",
          "type": "address"
        },
        {
          "indexed": false,
          "internalType": "address",
          "name": "claimer",
          "type": "address"
        },
        {
          "indexed": false,
          "internalType": "uint256",
          "name": "amount",
          "type": "uint256"
        }
      ],
      "name": "RewardsClaimed",
      "type": "event"
    },
    {
      "anonymous": false,
      "inputs": [
        {
          "indexed": true,
          "internalType": "address",
          "name": "reward",
          "type": "address"
        },
        {
          "indexed": true,
          "internalType": "address",
          "name": "transferStrategy",
          "type": "address"
        }
      ],
      "name": "TransferStrategyInstalled",
      "type": "event"
    },
    {
      "anonymous": false,
      "inputs": [
        {
          "indexed": true,
          "internalType": "address",
          "name": "updater",
          "type": "address"
        },
        {
          "indexed": true,
          "internalType": "bool",
          "name": "status",
          "type": "bool"
        }
      ],
      "name": "UpdaterSet",
      "type": "event"
    },
    {
      "inputs": [],
      "name": "EMISSION_MANAGER",
      "outputs": [
        {
          "internalType": "address",
          "name": "",
          "type": "address"
        }
      ],
      "stateMutability": "view",
      "type": "function"
    },
    {
      "inputs": [],
      "name": "REVISION",
      "outputs": [
        {
          "internalType": "uint256",
          "name": "",
          "type": "uint256"
        }
      ],
      "stateMutability": "view",
      "type": "function"
    },
    {
      "inputs": [
        {
          "internalType": "address[]",
          "name": "assets",
          "type": "address[]"
        },
        {
          "internalType": "address",
          "name": "to",
          "type": "address"
        }
      ],
      "name": "claimAllRewards",
      "outputs": [
        {
          "internalType": "address[]",
          "name": "rewardsList",
          "type": "address[]"
        },
        {
          "internalType": "uint256[]",
          "name": "claimedAmounts",
          "type": "uint256[]"
        }
      ],
      "stateMutability": "nonpayable",
      "type": "function"
    },
    {
      "inputs": [
        {
          "internalType": "address[]",
          "name": "assets",
          "type": "address[]"
        },
        {
          "internalType": "address",
          "name": "user",
          "type": "address"
        },
        {
          "internalType": "address",
          "name": "to",
          "type": "address"
        }
      ],
      "name": "claimAllRewardsOnBehalf",
      "outputs": [
        {
          "internalType": "address[]",
          "name": "rewardsList",
          "type": "address[]"
        },
        {
          "internalType": "uint256[]",
          "name": "claimedAmounts",
          "type": "uint256[]"
        }
      ],
      "stateMutability": "nonpayable",
      "type": "function"
    },
    {
      "inputs": [
        {
          "internalType": "address[]",
          "name": "assets",
          "type": "address[]"
        }
      ],
      "name": "claimAllRewardsToSelf",
      "outputs": [
        {
          "internalType": "address[]",
          "name": "rewardsList",
          "type": "address[]"
        },
        {
          "internalType": "uint256[]",
          "name": "claimedAmounts",
          "type": "uint256[]"
        }
      ],
      "stateMutability": "nonpayable",
      "type": "function"
    },
    {
      "inputs": [
        {
          "internalType": "address[]",
          "name": "assets",
          "type": "address[]"
        },
        {
          "internalType": "uint256",
          "name": "amount",
          "type": "uint256"
        },
        {
          "internalType": "address",
          "name": "to",
          "type": "address"
        },
        {
          "internalType": "address",
          "name": "reward",
          "type": "address"
        }
      ],
      "name": "claimRewards",
      "outputs": [
        {
          "internalType": "uint256",
          "name": "",
          "type": "uint256"
        }
      ],
      "stateMutability": "nonpayable",
      "type": "function"
    },
    {
      "inputs": [
        {
          "internalType": "address[]",
          "name": "assets",
          "type": "address[]"
        },
        {
          "internalType": "uint256",
          "name": "amount",
          "type": "uint256"
        },
        {
          "internalType": "address",
          "name": "user",
          "type": "address"
        },
        {
          "internalType": "address",
          "name": "to",
          "type": "address"
        },
        {
          "internalType": "address",
          "name": "reward",
          "type": "address"
        }
      ],
      "name": "claimRewardsOnBehalf",
      "outputs": [
        {
          "internalType": "uint256",
          "name": "",
          "type": "uint256"
        }
      ],
      "stateMutability": "nonpayable",
      "type": "function"
    },
    {
      "inputs": [
        {
          "internalType": "address[]",
          "name": "assets",
          "type": "address[]"
        },
        {
          "internalType": "uint256",
          "name": "amount",
          "type": "uint256"
        },
        {
          "internalType": "address",
          "name": "reward",
          "type": "address"
        }
      ],
      "name": "claimRewardsToSelf",
      "outputs": [
        {
          "internalType": "uint256",
          "name": "",
          "type": "uint256"
        }
      ],
      "stateMutability": "nonpayable",
      "type": "function"
    },
    {
      "inputs": [
        {
          "components": [
            {
              "internalType": "uint88",
              "name": "emissionPerSecond",
              "type": "uint88"
            },
            {
              "internalType": "uint256",
              "name": "totalSupply",
              "type": "uint256"
            },
            {
              "internalType": "uint32",
              "name": "distributionEnd",
              "type": "uint32"
            },
            {
              "internalType": "address",
              "name": "asset",
              "type": "address"
            },
            {
              "internalType": "address",
              "name": "reward",
              "type": "address"
            },
            {
              "internalType": "contract ITransferStrategyBase",
              "name": "transferStrategy",
              "type": "address"
            },
            {
              "internalType": "contract IEACAggregatorProxy",
              "name": "rewardOracle",
              "type": "address"
            }
          ],
          "internalType": "struct RewardsDataTypes.RewardsConfigInput[]",
          "name": "config",
          "type": "tuple[]"
        }
      ],
      "name": "configureAssets",
      "outputs": [],
      "stateMutability": "nonpayable",
      "type": "function"
    },
    {
      "inputs": [
        {
          "internalType": "address[]",
          "name": "assets",
          "type": "address[]"
        },
        {
          "internalType": "address",
          "name": "user",
          "type": "address"
        }
      ],
      "name": "getAllUserRewards",
      "outputs": [
        {
          "internalType": "address[]",
          "name": "rewardsList",
          "type": "address[]"
        },
        {
          "internalType": "uint256[]",
          "name": "unclaimedAmounts",
          "type": "uint256[]"
        }
      ],
      "stateMutability": "view",
      "type": "function"
    },
    {
      "inputs": [
        {
          "internalType": "address",
          "name": "asset",
          "type": "address"
        }
      ],
      "name": "getAssetDecimals",
      "outputs": [
        {
          "internalType": "uint8",
          "name": "",
          "type": "uint8"
        }
      ],
      "stateMutability": "view",
      "type": "function"
    },
    {
      "inputs": [
        {
          "internalType": "address",
          "name": "asset",
          "type": "address"
        },
        {
          "internalType": "address",
          "name": "reward",
          "type": "address"
        }
      ],
      "name": "getAssetIndex",
      "outputs": [
        {
          "internalType": "uint256",
          "name": "",
          "type": "uint256"
        },
        {
          "internalType": "uint256",
          "name": "",
          "type": "uint256"
        }
      ],
      "stateMutability": "view",
      "type": "function"
    },
    {
      "inputs": [],
      "name": "getAssetsList",
      "outputs": [
        {
          "internalType": "address[]",
          "name": "",
          "type": "address[]"
        }
      ],
      "stateMutability": "view",
      "type": "function"
    },
    {
      "inputs": [
        {
          "internalType": "address",
          "name": "user",
          "type": "address"
        }
      ],
      "name": "getClaimer",
      "outputs": [
        {
          "internalType": "address",
          "name": "",
          "type": "address"
        }
      ],
      "stateMutability": "view",
      "type": "function"
    },
    {
      "inputs": [
        {
          "internalType": "address",
          "name": "asset",
          "type": "address"
        },
        {
          "internalType": "address",
          "name": "reward",
          "type": "address"
        }
      ],
      "name": "getDistributionEnd",
      "outputs": [
        {
          "internalType": "uint256",
          "name": "",
          "type": "uint256"
        }
      ],
      "stateMutability": "view",
      "type": "function"
    },
    {
      "inputs": [],
      "name": "getEmissionManager",
      "outputs": [
        {
          "internalType": "address",
          "name": "",
          "type": "address"
        }
      ],
      "stateMutability": "view",
      "type": "function"
    },
    {
      "inputs": [
        {
          "internalType": "address",
          "name": "reward",
          "type": "address"
        }
      ],
      "name": "getRewardOracle",
      "outputs": [
        {
          "internalType": "address",
          "name": "",
          "type": "address"
        }
      ],
      "stateMutability": "view",
      "type": "function"
    },
    {
      "inputs": [
        {
          "internalType": "address",
          "name": "asset",
          "type": "address"
        }
      ],
      "name": "getRewardsByAsset",
      "outputs": [
        {
          "internalType": "address[]",
          "name": "",
          "type": "address[]"
        }
      ],
      "stateMutability": "view",
      "type": "function"
    },
    {
      "inputs": [
        {
          "internalType": "address",
          "name": "asset",
          "type": "address"
        },
        {
          "internalType": "address",
          "name": "reward",
          "type": "address"
        }
      ],
      "name": "getRewardsData",
      "outputs": [
        {
          "internalType": "uint256",
          "name": "",
          "type": "uint256"
        },
        {
          "internalType": "uint256",
          "name": "",
          "type": "uint256"
        },
        {
          "internalType": "uint256",
          "name": "",
          "type": "uint256"
        },
        {
          "internalType": "uint256",
          "name": "",
          "type": "uint256"
        }
      ],
      "stateMutability": "view",
      "type": "function"
    },
    {
      "inputs": [],
      "name": "getRewardsList",
      "outputs": [
        {
          "internalType": "address[]",
          "name": "",
          "type": "address[]"
        }
      ],
      "stateMutability": "view",
      "type": "function"
    },
    {
      "inputs": [
        {
          "internalType": "address",
          "name": "reward",
          "type": "address"
        }
      ],
      "name": "getTransferStrategy",
      "outputs": [
        {
          "internalType": "address",
          "name": "",
          "type": "address"
        }
      ],
      "stateMutability": "view",
      "type": "function"
    },
    {
      "inputs": [
        {
          "internalType": "address",
          "name": "user",
          "type": "address"
        },
        {
          "internalType": "address",
          "name": "reward",
          "type": "address"
        }
      ],
      "name": "getUserAccruedRewards",
      "outputs": [
        {
          "internalType": "uint256",
          "name": "",
          "type": "uint256"
        }
      ],
      "stateMutability": "view",
      "type": "function"
    },
    {
      "inputs": [
        {
          "internalType": "address",
          "name": "user",
          "type": "address"
        },
        {
          "internalType": "address",
          "name": "asset",
          "type": "address"
        },
        {
          "internalType": "address",
          "name": "reward",
          "type": "address"
        }
      ],
      "name": "getUserAssetIndex",
      "outputs": [
        {
          "internalType": "uint256",
          "name": "",
          "type": "uint256"
        }
      ],
      "stateMutability": "view",
      "type": "function"
    },
    {
      "inputs": [
        {
          "internalType": "address[]",
          "name": "assets",
          "type": "address[]"
        },
        {
          "internalType": "address",
          "name": "user",
          "type": "address"
        },
        {
          "internalType": "address",
          "name": "reward",
          "type": "address"
        }
      ],
      "name": "getUserRewards",
      "outputs": [
        {
          "internalType": "uint256",
          "name": "",
          "type": "uint256"
        }
      ],
      "stateMutability": "view",
      "type": "function"
    },
    {
      "inputs": [
        {
          "internalType": "address",
          "name": "user",
          "type": "address"
        },
        {
          "internalType": "uint256",
          "name": "totalSupply",
          "type": "uint256"
        },
        {
          "internalType": "uint256",
          "name": "userBalance",
          "type": "uint256"
        }
      ],
      "name": "handleAction",
      "outputs": [],
      "stateMutability": "nonpayable",
      "type": "function"
    },
    {
      "inputs": [
        {
          "internalType": "address",
          "name": "",
          "type": "address"
        }
      ],
      "name": "initialize",
      "outputs": [],
      "stateMutability": "nonpayable",
      "type": "function"
    },
    {
      "inputs": [
        {
          "internalType": "address",
          "name": "boostConfig",
          "type": "address"
        }
      ],
      "name": "setBoostConfig",
      "outputs": [],
      "stateMutability": "nonpayable",
      "type": "function"
    },
    {
      "inputs": [
        {
          "internalType": "address",
          "name": "user",
          "type": "address"
        },
        {
          "internalType": "address",
          "name": "caller",
          "type": "address"
        }
      ],
      "name": "setClaimer",
      "outputs": [],
      "stateMutability": "nonpayable",
      "type": "function"
    },
    {
      "inputs": [
        {
          "internalType": "address",
          "name": "asset",
          "type": "address"
        },
        {
          "internalType": "address",
          "name": "reward",
          "type": "address"
        },
        {
          "internalType": "uint32",
          "name": "newDistributionEnd",
          "type": "uint32"
        }
      ],
      "name": "setDistributionEnd",
      "outputs": [],
      "stateMutability": "nonpayable",
      "type": "function"
    },
    {
      "inputs": [
        {
          "internalType": "address",
          "name": "asset",
          "type": "address"
        },
        {
          "internalType": "address[]",
          "name": "rewards",
          "type": "address[]"
        },
        {
          "internalType": "uint88[]",
          "name": "newEmissionsPerSecond",
          "type": "uint88[]"
        }
      ],
      "name": "setEmissionPerSecond",
      "outputs": [],
      "stateMutability": "nonpayable",
      "type": "function"
    },
    {
      "inputs": [
        {
          "internalType": "address",
          "name": "reward",
          "type": "address"
        },
        {
          "internalType": "contract IEACAggregatorProxy",
          "name": "rewardOracle",
          "type": "address"
        }
      ],
      "name": "setRewardOracle",
      "outputs": [],
      "stateMutability": "nonpayable",
      "type": "function"
    },
    {
      "inputs": [
        {
          "internalType": "address",
          "name": "reward",
          "type": "address"
        },
        {
          "internalType": "contract ITransferStrategyBase",
          "name": "transferStrategy",
          "type": "address"
        }
      ],
      "name": "setTransferStrategy",
      "outputs": [],
      "stateMutability": "nonpayable",
      "type": "function"
    },
    {
      "inputs": [
        {
          "internalType": "address",
          "name": "updater",
          "type": "address"
        },
        {
          "internalType": "bool",
          "name": "status",
          "type": "bool"
        }
      ],
      "name": "setUpdater",
      "outputs": [],
      "stateMutability": "nonpayable",
      "type": "function"
    },
    {
      "inputs": [
        {
          "internalType": "address",
          "name": "user",
          "type": "address"
        }
      ],
      "name": "updateAction",
      "outputs": [],
      "stateMutability": "nonpayable",
      "type": "function"
    }
  ],
  "transactionHash": "0x812d88fe480383026c86fead4e0c62739e4d32d8fd3181518a46bd6e5c1b05f1",
  "args": [
    "0x11fAC1fD90EDB9A299a7b965D05479EB1C909AAb"
  ],
  "numDeployments": 1,
  "solcInputHash": "940b7d577868e862e6f14d18db7415c3",
  "bytecode": "0x60a060405260006006553480156200001657600080fd5b50604051620051cf380380620051cf83398101604081905262000039916200004b565b6001600160a01b03166080526200007d565b6000602082840312156200005e57600080fd5b81516001600160a01b03811681146200007657600080fd5b9392505050565b6080516150f7620000d8600039600081816105670152818161069b0152818161071601528181610fd90152818161131a015281816114a501528181611bb901528181611d6f01528181611e180152611f3301526150f76000f3fe608060405234801561001057600080fd5b50600436106102265760003560e01c806392074b081161012a578063bb492bf5116100bd578063cbcbb5071161008c578063e15ac62311610071578063e15ac623146106c5578063f5cf673b146106d8578063f996868b146106eb57600080fd5b8063cbcbb50714610696578063dde43cba146106bd57600080fd5b8063bb492bf51461064a578063bf90f63a1461065d578063c4d66de814610670578063c5a7b5381461068357600080fd5b80639ff55db9116100f95780639ff55db914610614578063a73b870c14610627578063b022418c1461062f578063b45ac1a91461064257600080fd5b806392074b081461056557806394a9c7441461058b578063955c2ad71461059e5780639efd6f72146105b157600080fd5b8063533f542a116101bd5780636657732f1161018c57806374d945ec1161017157806374d945ec146104285780637eff4ba814610461578063886fe70b1461053d57600080fd5b80636657732f146103f557806370674ab91461041557600080fd5b8063533f542a146103315780635453ba101461039657806357b89883146103a95780635f130b24146103bc57600080fd5b806331873e2e116101f957806331873e2e146102d757806333028b99146102ea5780633eb1e0a7146102fd5780634c0369c31461031057600080fd5b80631a1533911461022b5780631b839c7714610240578063236300dc146102665780632a17bf6014610279575b600080fd5b61023e61023936600461462b565b6106fe565b005b61025361024e366004614664565b610821565b6040519081526020015b60405180910390f35b6102536102743660046146d7565b610881565b6102b261028736600461474b565b73ffffffffffffffffffffffffffffffffffffffff9081166000908152603d60205260409020541690565b60405173ffffffffffffffffffffffffffffffffffffffff909116815260200161025d565b61023e6102e536600461476f565b610919565b6102536102f83660046147a4565b61092a565b61023e61030b36600461474b565b610ad6565b61032361031e366004614829565b610c6b565b60405161025d9291906148d1565b61025361033f366004614928565b73ffffffffffffffffffffffffffffffffffffffff80831660009081526002602090815260408083208585168452825280832093871683526001909301905220546cffffffffffffffffffffffffff169392505050565b61023e6103a4366004614664565b610fc1565b6102536103b7366004614968565b61106a565b6102b26103ca36600461474b565b73ffffffffffffffffffffffffffffffffffffffff9081166000908152603c60205260409020541690565b61040861040336600461474b565b611086565b60405161025d91906149c7565b6102536104233660046149da565b6111db565b6102b261043636600461474b565b73ffffffffffffffffffffffffffffffffffffffff9081166000908152603a60205260409020541690565b61051d61046f366004614664565b73ffffffffffffffffffffffffffffffffffffffff91821660009081526002602090815260408083209390941682529190915220546cffffffffffffffffffffffffff8116916affffffffffffffffffffff6d01000000000000000000000000008304169163ffffffff780100000000000000000000000000000000000000000000000082048116927c01000000000000000000000000000000000000000000000000000000009092041690565b60408051948552602085019390935291830152606082015260800161025d565b61055061054b366004614664565b6111f2565b6040805192835260208301919091520161025d565b7f00000000000000000000000000000000000000000000000000000000000000006102b2565b61023e61059936600461474b565b611302565b61023e6105ac366004614b12565b61148d565b6106026105bf36600461474b565b73ffffffffffffffffffffffffffffffffffffffff1660009081526002602081905260409091200154700100000000000000000000000000000000900460ff1690565b60405160ff909116815260200161025d565b6103236106223660046149da565b61168d565b61040861183c565b61025361063d366004614664565b6118ab565b610408611964565b610323610658366004614829565b6119d1565b61032361066b366004614c40565b611a6a565b61023e61067e36600461474b565b611a85565b61023e610691366004614c82565b611ba1565b6102b27f000000000000000000000000000000000000000000000000000000000000000081565b610253600381565b61023e6106d3366004614664565b611d57565b61023e6106e6366004614664565b611e00565b61023e6106f9366004614cc9565b611f1b565b3373ffffffffffffffffffffffffffffffffffffffff7f000000000000000000000000000000000000000000000000000000000000000016146107a2576040517f08c379a000000000000000000000000000000000000000000000000000000000815260206004820152601560248201527f4f4e4c595f454d495353494f4e5f4d414e41474552000000000000000000000060448201526064015b60405180910390fd5b73ffffffffffffffffffffffffffffffffffffffff82166000818152603b602052604080822080547fffffffffffffffffffffffffffffffffffffffffffffffffffffffffffffff001685151590811790915590519092917f9e0f3fc17a5f47bd46f3cab56d4d8a9ea9f32ad817657c3ea8e5dff28da3e3e791a35050565b73ffffffffffffffffffffffffffffffffffffffff8281166000908152600260209081526040808320938516835292905220547c0100000000000000000000000000000000000000000000000000000000900463ffffffff165b92915050565b600073ffffffffffffffffffffffffffffffffffffffff8316610900576040517f08c379a000000000000000000000000000000000000000000000000000000000815260206004820152601260248201527f494e56414c49445f544f5f4144445245535300000000000000000000000000006044820152606401610799565b61090f8686863333888861238f565b9695505050505050565b61092533848385612623565b505050565b73ffffffffffffffffffffffffffffffffffffffff8084166000908152603a60205260408120549091339186911682146109c0576040517f08c379a000000000000000000000000000000000000000000000000000000000815260206004820152601460248201527f434c41494d45525f554e415554484f52495a45440000000000000000000000006044820152606401610799565b73ffffffffffffffffffffffffffffffffffffffff8616610a3d576040517f08c379a000000000000000000000000000000000000000000000000000000000815260206004820152601460248201527f494e56414c49445f555345525f414444524553530000000000000000000000006044820152606401610799565b73ffffffffffffffffffffffffffffffffffffffff8516610aba576040517f08c379a000000000000000000000000000000000000000000000000000000000815260206004820152601260248201527f494e56414c49445f544f5f4144445245535300000000000000000000000000006044820152606401610799565b610ac9898989338a8a8a61238f565b9998505050505050505050565b336000908152603b602052604090205460ff16610b4f576040517f08c379a000000000000000000000000000000000000000000000000000000000815260206004820152601460248201527f555044415445525f554e415554484f52495a45440000000000000000000000006044820152606401610799565b60005b600554811015610c675760008060058381548110610b7257610b72614d4c565b6000918252602090912001546040517f0afbcdc900000000000000000000000000000000000000000000000000000000815273ffffffffffffffffffffffffffffffffffffffff868116600483015290911690630afbcdc9906024016040805180830381865afa158015610bea573d6000803e3d6000fd5b505050506040513d601f19601f82011682018060405250810190610c0e9190614d7b565b91509150610c5260058481548110610c2857610c28614d4c565b60009182526020909120015473ffffffffffffffffffffffffffffffffffffffff16858484612623565b50508080610c5f90614dce565b915050610b52565b5050565b6060806000610c7b8686866127d9565b60045490915067ffffffffffffffff811115610c9957610c99614a37565b604051908082528060200260200182016040528015610cc2578160200160208202803683370190505b509250825167ffffffffffffffff811115610cdf57610cdf614a37565b604051908082528060200260200182016040528015610d08578160200160208202803683370190505b50915060005b8151811015610fb65760005b8451811015610fa35760048181548110610d3657610d36614d4c565b9060005260206000200160009054906101000a900473ffffffffffffffffffffffffffffffffffffffff16858281518110610d7357610d73614d4c565b602002602001019073ffffffffffffffffffffffffffffffffffffffff16908173ffffffffffffffffffffffffffffffffffffffff168152505060026000848481518110610dc357610dc3614d4c565b60200260200101516000015173ffffffffffffffffffffffffffffffffffffffff1673ffffffffffffffffffffffffffffffffffffffff1681526020019081526020016000206000016000868381518110610e2057610e20614d4c565b602002602001015173ffffffffffffffffffffffffffffffffffffffff1673ffffffffffffffffffffffffffffffffffffffff16815260200190815260200160002060010160008773ffffffffffffffffffffffffffffffffffffffff1673ffffffffffffffffffffffffffffffffffffffff168152602001908152602001600020600001600d9054906101000a90046fffffffffffffffffffffffffffffffff166fffffffffffffffffffffffffffffffff16848281518110610ee657610ee6614d4c565b60200260200101818151610efa9190614e07565b9052508251839083908110610f1157610f11614d4c565b60200260200101516020015160001415610f2a57610f91565b610f6786868381518110610f4057610f40614d4c565b6020026020010151858581518110610f5a57610f5a614d4c565b60200260200101516129d7565b848281518110610f7957610f79614d4c565b60200260200101818151610f8d9190614e07565b9052505b80610f9b81614dce565b915050610d1a565b5080610fae81614dce565b915050610d0e565b50505b935093915050565b3373ffffffffffffffffffffffffffffffffffffffff7f00000000000000000000000000000000000000000000000000000000000000001614611060576040517f08c379a000000000000000000000000000000000000000000000000000000000815260206004820152601560248201527f4f4e4c595f454d495353494f4e5f4d414e4147455200000000000000000000006044820152606401610799565b610c678282612aac565b600061107b8585853333338861238f565b90505b949350505050565b73ffffffffffffffffffffffffffffffffffffffff81166000908152600260208190526040822001546060916fffffffffffffffffffffffffffffffff909116908167ffffffffffffffff8111156110e0576110e0614a37565b604051908082528060200260200182016040528015611109578160200160208202803683370190505b50905060005b826fffffffffffffffffffffffffffffffff16816fffffffffffffffffffffffffffffffff1610156111d35773ffffffffffffffffffffffffffffffffffffffff80861660009081526002602090815260408083206fffffffffffffffffffffffffffffffff86168085526001909101909252909120548451921691849190811061119c5761119c614d4c565b73ffffffffffffffffffffffffffffffffffffffff90921660209283029190910190910152806111cb81614e1f565b91505061110f565b509392505050565b600061107b83836111ed8888886127d9565b612c00565b73ffffffffffffffffffffffffffffffffffffffff8083166000818152600260209081526040808320948616835293815283822084517fb1bf962d00000000000000000000000000000000000000000000000000000000815294519294859491936112f59385939263b1bf962d92600480830193928290030181865afa158015611280573d6000803e3d6000fd5b505050506040513d601f19601f820116820180604052508101906112a49190614e4f565b73ffffffffffffffffffffffffffffffffffffffff8816600090815260026020819052604090912001546112f090700100000000000000000000000000000000900460ff16600a614f88565b612d9f565b92509250505b9250929050565b3373ffffffffffffffffffffffffffffffffffffffff7f000000000000000000000000000000000000000000000000000000000000000016146113a1576040517f08c379a000000000000000000000000000000000000000000000000000000000815260206004820152601560248201527f4f4e4c595f454d495353494f4e5f4d414e4147455200000000000000000000006044820152606401610799565b73ffffffffffffffffffffffffffffffffffffffff811661141e576040517f08c379a000000000000000000000000000000000000000000000000000000000815260206004820152601460248201527f434f4e4649475f4d5553545f4e4f545f5a45524f0000000000000000000000006044820152606401610799565b600180547fffffffffffffffffffffffff00000000000000000000000000000000000000001673ffffffffffffffffffffffffffffffffffffffff83169081179091556040517f5f5230011e18591ebb16f1c3d1368e67237b09cac3273a2d03441ada1841110b90600090a250565b3373ffffffffffffffffffffffffffffffffffffffff7f0000000000000000000000000000000000000000000000000000000000000000161461152c576040517f08c379a000000000000000000000000000000000000000000000000000000000815260206004820152601560248201527f4f4e4c595f454d495353494f4e5f4d414e4147455200000000000000000000006044820152606401610799565b60005b81518110156116805781818151811061154a5761154a614d4c565b60200260200101516060015173ffffffffffffffffffffffffffffffffffffffff1663b1bf962d6040518163ffffffff1660e01b8152600401602060405180830381865afa1580156115a0573d6000803e3d6000fd5b505050506040513d601f19601f820116820180604052508101906115c49190614e4f565b8282815181106115d6576115d6614d4c565b6020026020010151602001818152505061162a8282815181106115fb576115fb614d4c565b60200260200101516080015183838151811061161957611619614d4c565b602002602001015160a00151612eab565b61166e82828151811061163f5761163f614d4c565b60200260200101516080015183838151811061165d5761165d614d4c565b602002602001015160c00151612aac565b8061167881614dce565b91505061152f565b5061168a81613011565b50565b73ffffffffffffffffffffffffffffffffffffffff8083166000908152603a6020526040902054606091829133918691168214611726576040517f08c379a000000000000000000000000000000000000000000000000000000000815260206004820152601460248201527f434c41494d45525f554e415554484f52495a45440000000000000000000000006044820152606401610799565b73ffffffffffffffffffffffffffffffffffffffff86166117a3576040517f08c379a000000000000000000000000000000000000000000000000000000000815260206004820152601460248201527f494e56414c49445f555345525f414444524553530000000000000000000000006044820152606401610799565b73ffffffffffffffffffffffffffffffffffffffff8516611820576040517f08c379a000000000000000000000000000000000000000000000000000000000815260206004820152601260248201527f494e56414c49445f544f5f4144445245535300000000000000000000000000006044820152606401610799565b61182d88883389896138b2565b93509350505094509492505050565b606060058054806020026020016040519081016040528092919081815260200182805480156118a157602002820191906000526020600020905b815473ffffffffffffffffffffffffffffffffffffffff168152600190910190602001808311611876575b5050505050905090565b60008060005b6005548110156111d35760026000600583815481106118d2576118d2614d4c565b60009182526020808320919091015473ffffffffffffffffffffffffffffffffffffffff908116845283820194909452604092830182208885168352815282822093891682526001909301909252902054611950906d010000000000000000000000000090046fffffffffffffffffffffffffffffffff1683614e07565b91508061195c81614dce565b9150506118b1565b606060048054806020026020016040519081016040528092919081815260200182805480156118a15760200282019190600052602060002090815473ffffffffffffffffffffffffffffffffffffffff168152600190910190602001808311611876575050505050905090565b60608073ffffffffffffffffffffffffffffffffffffffff8316611a51576040517f08c379a000000000000000000000000000000000000000000000000000000000815260206004820152601260248201527f494e56414c49445f544f5f4144445245535300000000000000000000000000006044820152606401610799565b611a5e85853333876138b2565b91509150935093915050565b606080611a7a84843333336138b2565b915091509250929050565b60075460039060ff1680611a985750303b155b80611aa4575060065481115b611b30576040517f08c379a000000000000000000000000000000000000000000000000000000000815260206004820152602e60248201527f436f6e747261637420696e7374616e63652068617320616c726561647920626560448201527f656e20696e697469616c697a65640000000000000000000000000000000000006064820152608401610799565b60075460ff16158015611b6e57600780547fffffffffffffffffffffffffffffffffffffffffffffffffffffffffffffff0016600117905560068290555b801561092557600780547fffffffffffffffffffffffffffffffffffffffffffffffffffffffffffffff00169055505050565b3373ffffffffffffffffffffffffffffffffffffffff7f00000000000000000000000000000000000000000000000000000000000000001614611c40576040517f08c379a000000000000000000000000000000000000000000000000000000000815260206004820152601560248201527f4f4e4c595f454d495353494f4e5f4d414e4147455200000000000000000000006044820152606401610799565b73ffffffffffffffffffffffffffffffffffffffff83811660008181526002602090815260408083209487168084529482529182902080547bffffffffffffffffffffffffffffffffffffffffffffffffffffffff81167c010000000000000000000000000000000000000000000000000000000063ffffffff8981168281029384179586905587516d01000000000000000000000000009096046affffffffffffffffffffff16808752968601969096529083041694830185905260608301939093526cffffffffffffffffffffffffff9081169216919091176080820152909291907fac1777479f07f3e7c34da8402139d54027a6a260caaae168bdee825ca5580dc59060a00160405180910390a350505050565b3373ffffffffffffffffffffffffffffffffffffffff7f00000000000000000000000000000000000000000000000000000000000000001614611df6576040517f08c379a000000000000000000000000000000000000000000000000000000000815260206004820152601560248201527f4f4e4c595f454d495353494f4e5f4d414e4147455200000000000000000000006044820152606401610799565b610c678282612eab565b3373ffffffffffffffffffffffffffffffffffffffff7f00000000000000000000000000000000000000000000000000000000000000001614611e9f576040517f08c379a000000000000000000000000000000000000000000000000000000000815260206004820152601560248201527f4f4e4c595f454d495353494f4e5f4d414e4147455200000000000000000000006044820152606401610799565b73ffffffffffffffffffffffffffffffffffffffff8281166000818152603a602052604080822080547fffffffffffffffffffffffff0000000000000000000000000000000000000000169486169485179055517f4925eafc82d0c4d67889898eeed64b18488ab19811e61620f387026dec126a289190a35050565b3373ffffffffffffffffffffffffffffffffffffffff7f00000000000000000000000000000000000000000000000000000000000000001614611fba576040517f08c379a000000000000000000000000000000000000000000000000000000000815260206004820152601560248201527f4f4e4c595f454d495353494f4e5f4d414e4147455200000000000000000000006044820152606401610799565b828114612023576040517f08c379a000000000000000000000000000000000000000000000000000000000815260206004820152600d60248201527f494e56414c49445f494e505554000000000000000000000000000000000000006044820152606401610799565b60005b838110156123875773ffffffffffffffffffffffffffffffffffffffff8616600090815260026020526040812090818188888681811061206857612068614d4c565b905060200201602081019061207d919061474b565b73ffffffffffffffffffffffffffffffffffffffff16815260208101919091526040016000206002830154909150700100000000000000000000000000000000900460ff1680158015906120f3575081547801000000000000000000000000000000000000000000000000900463ffffffff1615155b612159576040517f08c379a000000000000000000000000000000000000000000000000000000000815260206004820152601b60248201527f444953545249425554494f4e5f444f45535f4e4f545f455849535400000000006044820152606401610799565b60006121de838b73ffffffffffffffffffffffffffffffffffffffff1663b1bf962d6040518163ffffffff1660e01b8152600401602060405180830381865afa1580156121aa573d6000803e3d6000fd5b505050506040513d601f19601f820116820180604052508101906121ce9190614e4f565b6121d985600a614f97565b613d9a565b5083549091506d010000000000000000000000000090046affffffffffffffffffffff1687878781811061221457612214614d4c565b90506020020160208101906122299190614fa3565b84546affffffffffffffffffffff919091166d0100000000000000000000000000027fffffffffffffffff0000000000000000000000ffffffffffffffffffffffffff90911617845589898781811061228457612284614d4c565b9050602002016020810190612299919061474b565b73ffffffffffffffffffffffffffffffffffffffff168b73ffffffffffffffffffffffffffffffffffffffff167fac1777479f07f3e7c34da8402139d54027a6a260caaae168bdee825ca5580dc5838b8b8b8181106122fa576122fa614d4c565b905060200201602081019061230f9190614fa3565b8854604080519384526affffffffffffffffffffff90921660208401527c0100000000000000000000000000000000000000000000000000000000900463ffffffff1690820181905260608201526080810186905260a00160405180910390a35050505050808061237f90614dce565b915050612026565b505050505050565b60008561239e57506000612618565b60006123b4856123af8b8b896127d9565b613f28565b60005b8881101561259e5760008a8a838181106123d3576123d3614d4c565b90506020020160208101906123e8919061474b565b73ffffffffffffffffffffffffffffffffffffffff81811660009081526002602090815260408083208a851684528252808320938c168352600190930190522054909150612459906d010000000000000000000000000090046fffffffffffffffffffffffffffffffff1684614e07565b92508883116124cd5773ffffffffffffffffffffffffffffffffffffffff808216600090815260026020908152604080832089851684528252808320938b168352600190930190522080547fffffff00000000000000000000000000000000ffffffffffffffffffffffffff16905561258b565b60006124d98a85614fbe565b90506124e58185614fbe565b93506124f081613fa9565b73ffffffffffffffffffffffffffffffffffffffff92831660009081526002602090815260408083208a871684528252808320958c168352600190950190529290922080546fffffffffffffffffffffffffffffffff939093166d0100000000000000000000000000027fffffff00000000000000000000000000000000ffffffffffffffffffffffffff909316929092179091555061259e565b508061259681614dce565b9150506123b7565b50806125ae576000915050612618565b6125b984848361404f565b6040805173ffffffffffffffffffffffffffffffffffffffff8881168252602082018490528087169286821692918916917fc052130bc4ef84580db505783484b067ea8b71b3bca78a7e12db7aea8658f004910160405180910390a490505b979650505050505050565b73ffffffffffffffffffffffffffffffffffffffff84166000908152600260208190526040909120015460ff700100000000000000000000000000000000820416600a0a906fffffffffffffffffffffffffffffffff16806126865750506127d3565b60005b81816fffffffffffffffffffffffffffffffff1610156127cf5773ffffffffffffffffffffffffffffffffffffffff80881660009081526002602090815260408083206fffffffffffffffffffffffffffffffff86168452600181018352818420549094168084529390915281209080612704838989613d9a565b91509150600080612719858d8c8e888e61417b565b9150915082806127265750805b156127bd578b73ffffffffffffffffffffffffffffffffffffffff168673ffffffffffffffffffffffffffffffffffffffff168e73ffffffffffffffffffffffffffffffffffffffff167f3303facd24627943a92e9dc87cfbb34b15c49b726eec3ad3487c16be9ab8efe88788876040516127b4939291909283526020830191909152604082015260600190565b60405180910390a45b50506001909401935061268992505050565b5050505b50505050565b60608267ffffffffffffffff8111156127f4576127f4614a37565b60405190808252806020026020018201604052801561285f57816020015b61284c6040518060600160405280600073ffffffffffffffffffffffffffffffffffffffff16815260200160008152602001600081525090565b8152602001906001900390816128125790505b50905060005b838110156111d35784848281811061287f5761287f614d4c565b9050602002016020810190612894919061474b565b8282815181106128a6576128a6614d4c565b602090810291909101015173ffffffffffffffffffffffffffffffffffffffff90911690528484828181106128dd576128dd614d4c565b90506020020160208101906128f2919061474b565b6040517f0afbcdc900000000000000000000000000000000000000000000000000000000815273ffffffffffffffffffffffffffffffffffffffff85811660048301529190911690630afbcdc9906024016040805180830381865afa15801561295f573d6000803e3d6000fd5b505050506040513d601f19601f820116820180604052508101906129839190614d7b565b83838151811061299557612995614d4c565b60200260200101516020018484815181106129b2576129b2614d4c565b60209081029190910101516040019190915252806129cf81614dce565b915050612865565b805173ffffffffffffffffffffffffffffffffffffffff9081166000908152600260208181526040808420878616855282528084208651909516845290829052822001549091908290612a4290700100000000000000000000000000000000900460ff16600a614f88565b90506000612a5583866040015184612d9f565b6040808801516020808a015173ffffffffffffffffffffffffffffffffffffffff8d16600090815260018a019092529290205492945061261893508a9290919085906cffffffffffffffffffffffffff16876142dd565b60008173ffffffffffffffffffffffffffffffffffffffff166350d25bcd6040518163ffffffff1660e01b8152600401602060405180830381865afa158015612af9573d6000803e3d6000fd5b505050506040513d601f19601f82011682018060405250810190612b1d9190614e4f565b13612b84576040517f08c379a000000000000000000000000000000000000000000000000000000000815260206004820152601860248201527f4f5241434c455f4d5553545f52455455524e5f505249434500000000000000006044820152606401610799565b73ffffffffffffffffffffffffffffffffffffffff8281166000818152603d602052604080822080547fffffffffffffffffffffffff0000000000000000000000000000000000000000169486169485179055517f1a1cd5483e52e60b9ff7f3b9d1db3bbd9e9d21c6324ad3a8c79dba9b75e62f4d9190a35050565b6000805b82518110156111d357828181518110612c1f57612c1f614d4c565b60200260200101516020015160001415612cce5760026000848381518110612c4957612c49614d4c565b6020908102919091018101515173ffffffffffffffffffffffffffffffffffffffff9081168352828201939093526040918201600090812088851682528252828120938916815260019093019052902054612cc7906d010000000000000000000000000090046fffffffffffffffffffffffffffffffff1683614e07565b9150612d8d565b60026000848381518110612ce457612ce4614d4c565b6020908102919091018101515173ffffffffffffffffffffffffffffffffffffffff908116835282820193909352604091820160009081208885168252825282812093891681526001909301905290205483516d01000000000000000000000000009091046fffffffffffffffffffffffffffffffff1690612d769087908790879086908110610f5a57610f5a614d4c565b612d809190614e07565b612d8a9083614e07565b91505b80612d9781614dce565b915050612c04565b825460009081906cffffffffffffffffffffffffff81169063ffffffff7c010000000000000000000000000000000000000000000000000000000082048116916affffffffffffffffffffff6d010000000000000000000000000082041691780100000000000000000000000000000000000000000000000090910416811580612e27575087155b80612e3157504281145b80612e3c5750828110155b15612e505783849550955050505050610fb9565b6000834211612e5f5742612e61565b835b90506000612e6f8383614fbe565b9050600089612e7e8387614fd5565b612e889190614fd5565b8b9004905086612e988183614e07565b9850985050505050505050935093915050565b73ffffffffffffffffffffffffffffffffffffffff8116612f28576040517f08c379a000000000000000000000000000000000000000000000000000000000815260206004820152601860248201527f53545241544547595f43414e5f4e4f545f42455f5a45524f00000000000000006044820152606401610799565b6001813b151514612f95576040517f08c379a000000000000000000000000000000000000000000000000000000000815260206004820152601960248201527f53545241544547595f4d5553545f42455f434f4e5452414354000000000000006044820152606401610799565b73ffffffffffffffffffffffffffffffffffffffff8281166000818152603c602052604080822080547fffffffffffffffffffffffff0000000000000000000000000000000000000000169486169485179055517f8ca1d928f1d72493a6b78c4f74aabde976bc37ffe2570f2a1ce5a8abd3dde0aa9190a35050565b60005b8151811015610c67576002600083838151811061303357613033614d4c565b6020908102919091018101516060015173ffffffffffffffffffffffffffffffffffffffff16825281019190915260400160002060020154700100000000000000000000000000000000900460ff166130ff57600582828151811061309a5761309a614d4c565b6020908102919091018101516060015182546001810184556000938452919092200180547fffffffffffffffffffffffff00000000000000000000000000000000000000001673ffffffffffffffffffffffffffffffffffffffff9092169190911790555b600082828151811061311357613113614d4c565b60200260200101516060015173ffffffffffffffffffffffffffffffffffffffff1663313ce5676040518163ffffffff1660e01b8152600401602060405180830381865afa158015613169573d6000803e3d6000fd5b505050506040513d601f19601f8201168201806040525081019061318d9190615012565b600260008585815181106131a3576131a3614d4c565b60200260200101516060015173ffffffffffffffffffffffffffffffffffffffff1673ffffffffffffffffffffffffffffffffffffffff16815260200190815260200160002060020160106101000a81548160ff021916908360ff160217905560ff16905060006002600085858151811061322057613220614d4c565b60200260200101516060015173ffffffffffffffffffffffffffffffffffffffff1673ffffffffffffffffffffffffffffffffffffffff168152602001908152602001600020600001600085858151811061327d5761327d614d4c565b6020908102919091018101516080015173ffffffffffffffffffffffffffffffffffffffff16825281019190915260400160002080549091507801000000000000000000000000000000000000000000000000900463ffffffff166134ec578383815181106132ee576132ee614d4c565b6020026020010151608001516002600086868151811061331057613310614d4c565b60200260200101516060015173ffffffffffffffffffffffffffffffffffffffff1673ffffffffffffffffffffffffffffffffffffffff16815260200190815260200160002060010160006002600088888151811061337157613371614d4c565b60200260200101516060015173ffffffffffffffffffffffffffffffffffffffff1673ffffffffffffffffffffffffffffffffffffffff16815260200190815260200160002060020160009054906101000a90046fffffffffffffffffffffffffffffffff166fffffffffffffffffffffffffffffffff166fffffffffffffffffffffffffffffffff16815260200190815260200160002060006101000a81548173ffffffffffffffffffffffffffffffffffffffff021916908373ffffffffffffffffffffffffffffffffffffffff1602179055506002600085858151811061345d5761345d614d4c565b6020908102919091018101516060015173ffffffffffffffffffffffffffffffffffffffff168252810191909152604001600090812060020180546fffffffffffffffffffffffffffffffff16916134b483614e1f565b91906101000a8154816fffffffffffffffffffffffffffffffff02191690836fffffffffffffffffffffffffffffffff160217905550505b6003600085858151811061350257613502614d4c565b6020908102919091018101516080015173ffffffffffffffffffffffffffffffffffffffff1682528101919091526040016000205460ff1661362c5760016003600086868151811061355657613556614d4c565b60200260200101516080015173ffffffffffffffffffffffffffffffffffffffff1673ffffffffffffffffffffffffffffffffffffffff16815260200190815260200160002060006101000a81548160ff02191690831515021790555060048484815181106135c7576135c7614d4c565b6020908102919091018101516080015182546001810184556000938452919092200180547fffffffffffffffffffffffff00000000000000000000000000000000000000001673ffffffffffffffffffffffffffffffffffffffff9092169190911790555b600061365d8286868151811061364457613644614d4c565b60200260200101516020015185600a6121d99190614f97565b50825486519192506d010000000000000000000000000081046affffffffffffffffffffff16917c010000000000000000000000000000000000000000000000000000000090910463ffffffff16908790879081106136be576136be614d4c565b60209081029190910101515184546affffffffffffffffffffff9091166d0100000000000000000000000000027fffffffffffffffff0000000000000000000000ffffffffffffffffffffffffff909116178455865187908790811061372657613726614d4c565b602090810291909101015160400151845463ffffffff9091167c0100000000000000000000000000000000000000000000000000000000027bffffffffffffffffffffffffffffffffffffffffffffffffffffffff909116178455865187908790811061379557613795614d4c565b60200260200101516080015173ffffffffffffffffffffffffffffffffffffffff168787815181106137c9576137c9614d4c565b60200260200101516060015173ffffffffffffffffffffffffffffffffffffffff167fac1777479f07f3e7c34da8402139d54027a6a260caaae168bdee825ca5580dc5848a8a8151811061381f5761381f614d4c565b602002602001015160000151858c8c8151811061383e5761383e614d4c565b602002602001015160400151896040516138929594939291906affffffffffffffffffffff958616815293909416602084015263ffffffff9182166040840152166060820152608081019190915260a00190565b60405180910390a3505050505080806138aa90614dce565b915050613014565b60045460609081908067ffffffffffffffff8111156138d3576138d3614a37565b6040519080825280602002602001820160405280156138fc578160200160208202803683370190505b5092508067ffffffffffffffff81111561391857613918614a37565b604051908082528060200260200182016040528015613941578160200160208202803683370190505b509150613953856123af8a8a896127d9565b60005b87811015613c6257600089898381811061397257613972614d4c565b9050602002016020810190613987919061474b565b905060005b83811015613c4d57600073ffffffffffffffffffffffffffffffffffffffff168682815181106139be576139be614d4c565b602002602001015173ffffffffffffffffffffffffffffffffffffffff161415613a6d57600481815481106139f5576139f5614d4c565b9060005260206000200160009054906101000a900473ffffffffffffffffffffffffffffffffffffffff16868281518110613a3257613a32614d4c565b602002602001019073ffffffffffffffffffffffffffffffffffffffff16908173ffffffffffffffffffffffffffffffffffffffff16815250505b73ffffffffffffffffffffffffffffffffffffffff8216600090815260026020526040812087518290899085908110613aa857613aa8614d4c565b60209081029190910181015173ffffffffffffffffffffffffffffffffffffffff90811683528282019390935260409182016000908120938d168152600190930190529020546d010000000000000000000000000090046fffffffffffffffffffffffffffffffff1690508015613c3a5780868381518110613b2c57613b2c614d4c565b60200260200101818151613b409190614e07565b90525073ffffffffffffffffffffffffffffffffffffffff83166000908152600260205260408120885182908a9086908110613b7e57613b7e614d4c565b602002602001015173ffffffffffffffffffffffffffffffffffffffff1673ffffffffffffffffffffffffffffffffffffffff16815260200190815260200160002060010160008b73ffffffffffffffffffffffffffffffffffffffff1673ffffffffffffffffffffffffffffffffffffffff168152602001908152602001600020600001600d6101000a8154816fffffffffffffffffffffffffffffffff02191690836fffffffffffffffffffffffffffffffff1602179055505b5080613c4581614dce565b91505061398c565b50508080613c5a90614dce565b915050613956565b5060005b81811015613d8e57613cab85858381518110613c8457613c84614d4c565b6020026020010151858481518110613c9e57613c9e614d4c565b602002602001015161404f565b8473ffffffffffffffffffffffffffffffffffffffff16848281518110613cd457613cd4614d4c565b602002602001015173ffffffffffffffffffffffffffffffffffffffff168773ffffffffffffffffffffffffffffffffffffffff167fc052130bc4ef84580db505783484b067ea8b71b3bca78a7e12db7aea8658f0048a878681518110613d3d57613d3d614d4c565b6020026020010151604051613d7492919073ffffffffffffffffffffffffffffffffffffffff929092168252602082015260400190565b60405180910390a480613d8681614dce565b915050613c66565b50509550959350505050565b600080600080613dab878787612d9f565b915091506000828214613ec4576cffffffffffffffffffffffffff821115613e2f576040517f08c379a000000000000000000000000000000000000000000000000000000000815260206004820152600e60248201527f494e4445585f4f564552464c4f570000000000000000000000000000000000006044820152606401610799565b5086547fffffffffffffffffffffffffffffffffffffff00000000000000000000000000166cffffffffffffffffffffffffff82161787556001613e724261433c565b885463ffffffff919091167801000000000000000000000000000000000000000000000000027fffffffff00000000ffffffffffffffffffffffffffffffffffffffffffffffff909116178855613f1b565b613ecd4261433c565b885463ffffffff919091167801000000000000000000000000000000000000000000000000027fffffffff00000000ffffffffffffffffffffffffffffffffffffffffffffffff9091161788555b9097909650945050505050565b60005b815181101561092557613f97828281518110613f4957613f49614d4c565b60200260200101516000015184848481518110613f6857613f68614d4c565b602002602001015160200151858581518110613f8657613f86614d4c565b602002602001015160400151612623565b80613fa181614dce565b915050613f2b565b60006fffffffffffffffffffffffffffffffff82111561404b576040517f08c379a000000000000000000000000000000000000000000000000000000000815260206004820152602760248201527f53616665436173743a2076616c756520646f65736e27742066697420696e203160448201527f32382062697473000000000000000000000000000000000000000000000000006064820152608401610799565b5090565b73ffffffffffffffffffffffffffffffffffffffff8281166000818152603c60205260408082205490517f16beb9820000000000000000000000000000000000000000000000000000000081528785166004820152602481019390935260448301859052909216919082906316beb982906064016020604051808303816000875af11580156140e2573d6000803e3d6000fd5b505050506040513d601f19601f820116820180604052508101906141069190615035565b9050600181151514614174576040517f08c379a000000000000000000000000000000000000000000000000000000000815260206004820152600e60248201527f5452414e534645525f4552524f520000000000000000000000000000000000006044820152606401610799565b5050505050565b73ffffffffffffffffffffffffffffffffffffffff8516600090815260018701602052604081205481906cffffffffffffffffffffffffff16818582148015906142cd5773ffffffffffffffffffffffffffffffffffffffff8a16600090815260018c016020526040902080547fffffffffffffffffffffffffffffffffffffff00000000000000000000000000166cffffffffffffffffffffffffff891617905587156142cd576142318a8a8a8a878b6142dd565b915061423c82613fa9565b73ffffffffffffffffffffffffffffffffffffffff8b16600090815260018d01602052604090208054600d906142969084906d010000000000000000000000000090046fffffffffffffffffffffffffffffffff16615052565b92506101000a8154816fffffffffffffffffffffffffffffffff02191690836fffffffffffffffffffffffffffffffff1602179055505b909a909950975050505050505050565b6000806142ea8486614fbe565b6142f49087614fd5565b60015490915073ffffffffffffffffffffffffffffffffffffffff161561432e57614321888888846143d2565b61432b9082614e07565b90505b919091049695505050505050565b600063ffffffff82111561404b576040517f08c379a000000000000000000000000000000000000000000000000000000000815260206004820152602660248201527f53616665436173743a2076616c756520646f65736e27742066697420696e203360448201527f32206269747300000000000000000000000000000000000000000000000000006064820152608401610799565b60015460009073ffffffffffffffffffffffffffffffffffffffff166143fa5750600061107e565b6001546040517ff409bbbd00000000000000000000000000000000000000000000000000000000815273ffffffffffffffffffffffffffffffffffffffff8781166004830152600092869288929091169063f409bbbd90602401602060405180830381865afa158015614471573d6000803e3d6000fd5b505050506040513d601f19601f820116820180604052508101906144959190614e4f565b61449f9190614fd5565b6144a99190615086565b90506000600160009054906101000a900473ffffffffffffffffffffffffffffffffffffffff1673ffffffffffffffffffffffffffffffffffffffff16631b0c2cf96040518163ffffffff1660e01b8152600401602060405180830381865afa15801561451a573d6000803e3d6000fd5b505050506040513d601f19601f8201168201806040525081019061453e9190614e4f565b9050600160009054906101000a900473ffffffffffffffffffffffffffffffffffffffff1673ffffffffffffffffffffffffffffffffffffffff166355564c6d6040518163ffffffff1660e01b8152600401602060405180830381865afa1580156145ad573d6000803e3d6000fd5b505050506040513d601f19601f820116820180604052508101906145d19190614e4f565b8183116145e7576145e28584614fd5565b6145f1565b6145f18583614fd5565b6126189190615086565b73ffffffffffffffffffffffffffffffffffffffff8116811461168a57600080fd5b801515811461168a57600080fd5b6000806040838503121561463e57600080fd5b8235614649816145fb565b915060208301356146598161461d565b809150509250929050565b6000806040838503121561467757600080fd5b8235614682816145fb565b91506020830135614659816145fb565b60008083601f8401126146a457600080fd5b50813567ffffffffffffffff8111156146bc57600080fd5b6020830191508360208260051b85010111156112fb57600080fd5b6000806000806000608086880312156146ef57600080fd5b853567ffffffffffffffff81111561470657600080fd5b61471288828901614692565b90965094505060208601359250604086013561472d816145fb565b9150606086013561473d816145fb565b809150509295509295909350565b60006020828403121561475d57600080fd5b8135614768816145fb565b9392505050565b60008060006060848603121561478457600080fd5b833561478f816145fb565b95602085013595506040909401359392505050565b60008060008060008060a087890312156147bd57600080fd5b863567ffffffffffffffff8111156147d457600080fd5b6147e089828a01614692565b9097509550506020870135935060408701356147fb816145fb565b9250606087013561480b816145fb565b9150608087013561481b816145fb565b809150509295509295509295565b60008060006040848603121561483e57600080fd5b833567ffffffffffffffff81111561485557600080fd5b61486186828701614692565b9094509250506020840135614875816145fb565b809150509250925092565b600081518084526020808501945080840160005b838110156148c657815173ffffffffffffffffffffffffffffffffffffffff1687529582019590820190600101614894565b509495945050505050565b6040815260006148e46040830185614880565b82810360208481019190915284518083528582019282019060005b8181101561491b578451835293830193918301916001016148ff565b5090979650505050505050565b60008060006060848603121561493d57600080fd5b8335614948816145fb565b92506020840135614958816145fb565b91506040840135614875816145fb565b6000806000806060858703121561497e57600080fd5b843567ffffffffffffffff81111561499557600080fd5b6149a187828801614692565b9095509350506020850135915060408501356149bc816145fb565b939692955090935050565b6020815260006147686020830184614880565b600080600080606085870312156149f057600080fd5b843567ffffffffffffffff811115614a0757600080fd5b614a1387828801614692565b9095509350506020850135614a27816145fb565b915060408501356149bc816145fb565b7f4e487b7100000000000000000000000000000000000000000000000000000000600052604160045260246000fd5b60405160e0810167ffffffffffffffff81118282101715614a8957614a89614a37565b60405290565b604051601f82017fffffffffffffffffffffffffffffffffffffffffffffffffffffffffffffffe016810167ffffffffffffffff81118282101715614ad657614ad6614a37565b604052919050565b80356affffffffffffffffffffff81168114614af957600080fd5b919050565b803563ffffffff81168114614af957600080fd5b60006020808385031215614b2557600080fd5b823567ffffffffffffffff80821115614b3d57600080fd5b818501915085601f830112614b5157600080fd5b813581811115614b6357614b63614a37565b614b71848260051b01614a8f565b818152848101925060e0918202840185019188831115614b9057600080fd5b938501935b82851015614c345780858a031215614bad5760008081fd5b614bb5614a66565b614bbe86614ade565b815286860135878201526040614bd5818801614afe565b90820152606086810135614be8816145fb565b90820152608086810135614bfb816145fb565b9082015260a086810135614c0e816145fb565b9082015260c086810135614c21816145fb565b9082015284529384019392850192614b95565b50979650505050505050565b60008060208385031215614c5357600080fd5b823567ffffffffffffffff811115614c6a57600080fd5b614c7685828601614692565b90969095509350505050565b600080600060608486031215614c9757600080fd5b8335614ca2816145fb565b92506020840135614cb2816145fb565b9150614cc060408501614afe565b90509250925092565b600080600080600060608688031215614ce157600080fd5b8535614cec816145fb565b9450602086013567ffffffffffffffff80821115614d0957600080fd5b614d1589838a01614692565b90965094506040880135915080821115614d2e57600080fd5b50614d3b88828901614692565b969995985093965092949392505050565b7f4e487b7100000000000000000000000000000000000000000000000000000000600052603260045260246000fd5b60008060408385031215614d8e57600080fd5b505080516020909101519092909150565b7f4e487b7100000000000000000000000000000000000000000000000000000000600052601160045260246000fd5b60007fffffffffffffffffffffffffffffffffffffffffffffffffffffffffffffffff821415614e0057614e00614d9f565b5060010190565b60008219821115614e1a57614e1a614d9f565b500190565b60006fffffffffffffffffffffffffffffffff80831681811415614e4557614e45614d9f565b6001019392505050565b600060208284031215614e6157600080fd5b5051919050565b600181815b80851115614ec157817fffffffffffffffffffffffffffffffffffffffffffffffffffffffffffffffff04821115614ea757614ea7614d9f565b80851615614eb457918102915b93841c9390800290614e6d565b509250929050565b600082614ed85750600161087b565b81614ee55750600061087b565b8160018114614efb5760028114614f0557614f21565b600191505061087b565b60ff841115614f1657614f16614d9f565b50506001821b61087b565b5060208310610133831016604e8410600b8410161715614f44575081810a61087b565b614f4e8383614e68565b807fffffffffffffffffffffffffffffffffffffffffffffffffffffffffffffffff04821115614f8057614f80614d9f565b029392505050565b600061476860ff841683614ec9565b60006147688383614ec9565b600060208284031215614fb557600080fd5b61476882614ade565b600082821015614fd057614fd0614d9f565b500390565b6000817fffffffffffffffffffffffffffffffffffffffffffffffffffffffffffffffff048311821515161561500d5761500d614d9f565b500290565b60006020828403121561502457600080fd5b815160ff8116811461476857600080fd5b60006020828403121561504757600080fd5b81516147688161461d565b60006fffffffffffffffffffffffffffffffff80831681851680830382111561507d5761507d614d9f565b01949350505050565b6000826150bc577f4e487b7100000000000000000000000000000000000000000000000000000000600052601260045260246000fd5b50049056fea2646970667358221220af5df2ccd6eb7e02148cb70e9c0b59b109c9aa1c08c36c9046a52087ae6c135b64736f6c634300080a0033",
  "devdoc": {
    "author": "Aave*",
    "kind": "dev",
    "methods": {
      "claimAllRewards(address[],address)": {
        "details": "Claims all rewards for a user to the desired address, on all the assets of the pool, accumulating the pending rewards",
        "params": {
          "assets": "The list of assets to check eligible distributions before claiming rewards",
          "to": "The address that will be receiving the rewards"
        },
        "returns": {
          "claimedAmounts": "List that contains the claimed amount per reward, following same order as \"rewardList\"*",
          "rewardsList": "List of addresses of the reward tokens"
        }
      },
      "claimAllRewardsOnBehalf(address[],address,address)": {
        "details": "Claims all rewards for a user on behalf, on all the assets of the pool, accumulating the pending rewards. The caller must be whitelisted via \"allowClaimOnBehalf\" function by the RewardsAdmin role manager",
        "params": {
          "assets": "The list of assets to check eligible distributions before claiming rewards",
          "to": "The address that will be receiving the rewards",
          "user": "The address to check and claim rewards"
        },
        "returns": {
          "claimedAmounts": "List that contains the claimed amount per reward, following same order as \"rewardsList\"*",
          "rewardsList": "List of addresses of the reward tokens"
        }
      },
      "claimAllRewardsToSelf(address[])": {
        "details": "Claims all reward for msg.sender, on all the assets of the pool, accumulating the pending rewards",
        "params": {
          "assets": "The list of assets to check eligible distributions before claiming rewards"
        },
        "returns": {
          "claimedAmounts": "List that contains the claimed amount per reward, following same order as \"rewardsList\"*",
          "rewardsList": "List of addresses of the reward tokens"
        }
      },
      "claimRewards(address[],uint256,address,address)": {
        "details": "Claims reward for a user to the desired address, on all the assets of the pool, accumulating the pending rewards",
        "params": {
          "amount": "The amount of rewards to claim",
          "assets": "List of assets to check eligible distributions before claiming rewards",
          "reward": "The address of the reward token",
          "to": "The address that will be receiving the rewards"
        },
        "returns": {
          "_0": "The amount of rewards claimed*"
        }
      },
      "claimRewardsOnBehalf(address[],uint256,address,address,address)": {
        "details": "Claims reward for a user on behalf, on all the assets of the pool, accumulating the pending rewards. The caller must be whitelisted via \"allowClaimOnBehalf\" function by the RewardsAdmin role manager",
        "params": {
          "amount": "The amount of rewards to claim",
          "assets": "The list of assets to check eligible distributions before claiming rewards",
          "reward": "The address of the reward token",
          "to": "The address that will be receiving the rewards",
          "user": "The address to check and claim rewards"
        },
        "returns": {
          "_0": "The amount of rewards claimed*"
        }
      },
      "claimRewardsToSelf(address[],uint256,address)": {
        "details": "Claims reward for msg.sender, on all the assets of the pool, accumulating the pending rewards",
        "params": {
          "amount": "The amount of rewards to claim",
          "assets": "The list of assets to check eligible distributions before claiming rewards",
          "reward": "The address of the reward token"
        },
        "returns": {
          "_0": "The amount of rewards claimed*"
        }
      },
      "configureAssets((uint88,uint256,uint32,address,address,address,address)[])": {
        "details": "Configure assets to incentivize with an emission of rewards per second until the end of distribution.",
        "params": {
          "config": "The assets configuration input, the list of structs contains the following fields:   uint104 emissionPerSecond: The emission per second following rewards unit decimals.   uint256 totalSupply: The total supply of the asset to incentivize   uint40 distributionEnd: The end of the distribution of the incentives for an asset   address asset: The asset address to incentivize   address reward: The reward token address   ITransferStrategy transferStrategy: The TransferStrategy address with the install hook and claim logic.   IEACAggregatorProxy rewardOracle: The Price Oracle of a reward to visualize the incentives at the UI Frontend.                                     Must follow Chainlink Aggregator IEACAggregatorProxy interface to be compatible."
        }
      },
      "getAllUserRewards(address[],address)": {
        "details": "Returns a list all rewards of a user, including already accrued and unrealized claimable rewards",
        "params": {
          "assets": "List of incentivized assets to check eligible distributions",
          "user": "The address of the user"
        },
        "returns": {
          "rewardsList": "The list of reward addresses",
          "unclaimedAmounts": "The list of unclaimed amount of rewards*"
        }
      },
      "getAssetDecimals(address)": {
        "details": "Returns the decimals of an asset to calculate the distribution delta",
        "params": {
          "asset": "The address to retrieve decimals"
        },
        "returns": {
          "_0": "The decimals of an underlying asset"
        }
      },
      "getAssetIndex(address,address)": {
        "details": "Calculates the next value of an specific distribution index, with validations.",
        "params": {
          "asset": "The incentivized asset",
          "reward": "The reward token of the incentivized asset"
        },
        "returns": {
          "_0": "The old index of the asset distribution",
          "_1": "The new index of the asset distribution*"
        }
      },
      "getAssetsList()": {
        "details": "Returns the list of all asset addresses",
        "returns": {
          "_0": "List of asset supported in this contract*"
        }
      },
      "getClaimer(address)": {
        "details": "Returns the whitelisted claimer for a certain address (0x0 if not set)",
        "params": {
          "user": "The address of the user"
        },
        "returns": {
          "_0": "The claimer address"
        }
      },
      "getDistributionEnd(address,address)": {
        "details": "Gets the end date for the distribution",
        "params": {
          "asset": "The incentivized asset",
          "reward": "The reward token of the incentivized asset"
        },
        "returns": {
          "_0": "The timestamp with the end of the distribution, in unix time format*"
        }
      },
      "getEmissionManager()": {
        "details": "Returns the address of the emission manager. Deprecated: This getter is maintained for compatibility purposes. Use the `EMISSION_MANAGER()` function instead.",
        "returns": {
          "_0": "The address of the EmissionManager"
        }
      },
      "getRewardOracle(address)": {
        "details": "Get the price aggregator oracle address",
        "params": {
          "reward": "The address of the reward"
        },
        "returns": {
          "_0": "The price oracle of the reward"
        }
      },
      "getRewardsByAsset(address)": {
        "details": "Returns the list of available reward token addresses of an incentivized asset",
        "params": {
          "asset": "The incentivized asset"
        },
        "returns": {
          "_0": "List of rewards addresses of the input asset*"
        }
      },
      "getRewardsData(address,address)": {
        "details": "Returns the configuration of the distribution reward for a certain asset",
        "params": {
          "asset": "The incentivized asset",
          "reward": "The reward token of the incentivized asset"
        },
        "returns": {
          "_0": "The index of the asset distribution",
          "_1": "The emission per second of the reward distribution",
          "_2": "The timestamp of the last update of the index",
          "_3": "The timestamp of the distribution end*"
        }
      },
      "getRewardsList()": {
        "details": "Returns the list of available reward addresses",
        "returns": {
          "_0": "List of rewards supported in this contract*"
        }
      },
      "getTransferStrategy(address)": {
        "details": "Returns the Transfer Strategy implementation contract address being used for a reward address",
        "params": {
          "reward": "The address of the reward"
        },
        "returns": {
          "_0": "The address of the TransferStrategy contract"
        }
      },
      "getUserAccruedRewards(address,address)": {
        "details": "Returns the accrued rewards balance of a user, not including virtually accrued rewards since last distribution.",
        "params": {
          "reward": "The address of the reward token",
          "user": "The address of the user"
        },
        "returns": {
          "_0": "Unclaimed rewards, not including new distributions*"
        }
      },
      "getUserAssetIndex(address,address,address)": {
        "details": "Returns the index of a user on a reward distribution",
        "params": {
          "asset": "The incentivized asset",
          "reward": "The reward token of the incentivized asset",
          "user": "Address of the user"
        },
        "returns": {
          "_0": "The current user asset index, not including new distributions*"
        }
      },
      "getUserRewards(address[],address,address)": {
        "details": "Returns a single rewards balance of a user, including virtually accrued and unrealized claimable rewards.",
        "params": {
          "assets": "List of incentivized assets to check eligible distributions",
          "reward": "The address of the reward token",
          "user": "The address of the user"
        },
        "returns": {
          "_0": "The rewards amount*"
        }
      },
      "handleAction(address,uint256,uint256)": {
        "details": "Called by the corresponding asset on transfer hook in order to update the rewards distribution.The units of `totalSupply` and `userBalance` should be the same.",
        "params": {
          "totalSupply": "The total supply of the asset prior to user balance change",
          "user": "The address of the user whose asset balance has changed",
          "userBalance": "The previous user balance prior to balance change*"
        }
      },
      "initialize(address)": {
        "details": "Initialize for RewardsControllerIt expects an address as argument since its initialized via PoolAddressesProvider._updateImpl()*"
      },
      "setClaimer(address,address)": {
        "details": "Whitelists an address to claim the rewards on behalf of another address",
        "params": {
          "claimer": "The address of the claimer",
          "user": "The address of the user"
        }
      },
      "setDistributionEnd(address,address,uint32)": {
        "details": "Sets the end date for the distribution",
        "params": {
          "asset": "The asset to incentivize",
          "newDistributionEnd": "The end date of the incentivization, in unix time format*",
          "reward": "The reward token that incentives the asset"
        }
      },
      "setEmissionPerSecond(address,address[],uint88[])": {
        "details": "Sets the emission per second of a set of reward distributions",
        "params": {
          "asset": "The asset is being incentivized",
          "newEmissionsPerSecond": "List of new reward emissions per second",
          "rewards": "List of reward addresses are being distributed"
        }
      },
      "setRewardOracle(address,address)": {
        "details": "Sets an Aave Oracle contract to enforce rewards with a source of value.",
        "params": {
          "reward": "The address of the reward to set the price aggregator",
          "rewardOracle": "The address of price aggregator that follows IEACAggregatorProxy interface"
        }
      },
      "setTransferStrategy(address,address)": {
        "details": "Sets a TransferStrategy logic contract that determines the logic of the rewards transfer",
        "params": {
          "reward": "The address of the reward token",
          "transferStrategy": "The address of the TransferStrategy logic contract"
        }
      },
      "setUpdater(address,bool)": {
        "details": "Whitelists an address to updater",
        "params": {
          "status": "The status of updater",
          "updater": "The address of the updater"
        }
      }
    },
    "title": "RewardsControllerV2",
    "version": 1
  },
  "userdoc": {
    "kind": "user",
    "methods": {
      "setRewardOracle(address,address)": {
        "notice": "At the moment of reward configuration, the Incentives Controller performs a check to see if the reward asset oracle is compatible with IEACAggregator proxy. This check is enforced for integrators to be able to show incentives at the current Aave UI without the need to setup an external price registry"
      }
    },
    "notice": "Abstract contract template to build Distributors contracts for ERC20 rewards to protocol participants",
    "version": 1
  },
  "storageLayout": {
    "storage": [
      {
        "astId": 1932,
        "contract": "contracts/periphery-v3/contracts/rewards/RewardsControllerV2.sol:RewardsControllerV2",
        "label": "_emissionManager",
        "offset": 0,
        "slot": "0",
        "type": "t_address"
      },
      {
        "astId": 1934,
        "contract": "contracts/periphery-v3/contracts/rewards/RewardsControllerV2.sol:RewardsControllerV2",
        "label": "_boostConfig",
        "offset": 0,
        "slot": "1",
        "type": "t_address"
      },
      {
        "astId": 1939,
        "contract": "contracts/periphery-v3/contracts/rewards/RewardsControllerV2.sol:RewardsControllerV2",
        "label": "_assets",
        "offset": 0,
        "slot": "2",
        "type": "t_mapping(t_address,t_struct(AssetData)796_storage)"
      },
      {
        "astId": 1943,
        "contract": "contracts/periphery-v3/contracts/rewards/RewardsControllerV2.sol:RewardsControllerV2",
        "label": "_isRewardEnabled",
        "offset": 0,
        "slot": "3",
        "type": "t_mapping(t_address,t_bool)"
      },
      {
        "astId": 1946,
        "contract": "contracts/periphery-v3/contracts/rewards/RewardsControllerV2.sol:RewardsControllerV2",
        "label": "_rewardsList",
        "offset": 0,
        "slot": "4",
        "type": "t_array(t_address)dyn_storage"
      },
      {
        "astId": 1949,
        "contract": "contracts/periphery-v3/contracts/rewards/RewardsControllerV2.sol:RewardsControllerV2",
        "label": "_assetsList",
        "offset": 0,
        "slot": "5",
        "type": "t_array(t_address)dyn_storage"
      },
      {
        "astId": 561,
        "contract": "contracts/periphery-v3/contracts/rewards/RewardsControllerV2.sol:RewardsControllerV2",
        "label": "lastInitializedRevision",
        "offset": 0,
        "slot": "6",
        "type": "t_uint256"
      },
      {
        "astId": 564,
        "contract": "contracts/periphery-v3/contracts/rewards/RewardsControllerV2.sol:RewardsControllerV2",
        "label": "initializing",
        "offset": 0,
        "slot": "7",
        "type": "t_bool"
      },
      {
        "astId": 634,
        "contract": "contracts/periphery-v3/contracts/rewards/RewardsControllerV2.sol:RewardsControllerV2",
        "label": "______gap",
        "offset": 0,
        "slot": "8",
        "type": "t_array(t_uint256)50_storage"
      },
      {
        "astId": 832,
        "contract": "contracts/periphery-v3/contracts/rewards/RewardsControllerV2.sol:RewardsControllerV2",
        "label": "_authorizedClaimers",
        "offset": 0,
        "slot": "58",
        "type": "t_mapping(t_address,t_address)"
      },
      {
        "astId": 836,
        "contract": "contracts/periphery-v3/contracts/rewards/RewardsControllerV2.sol:RewardsControllerV2",
        "label": "_authorizedUpdaters",
        "offset": 0,
        "slot": "59",
        "type": "t_mapping(t_address,t_bool)"
      },
      {
        "astId": 841,
        "contract": "contracts/periphery-v3/contracts/rewards/RewardsControllerV2.sol:RewardsControllerV2",
        "label": "_transferStrategy",
        "offset": 0,
        "slot": "60",
        "type": "t_mapping(t_address,t_contract(ITransferStrategyBase)733)"
      },
      {
        "astId": 846,
        "contract": "contracts/periphery-v3/contracts/rewards/RewardsControllerV2.sol:RewardsControllerV2",
        "label": "_rewardOracle",
        "offset": 0,
        "slot": "61",
        "type": "t_mapping(t_address,t_contract(IEACAggregatorProxy)686)"
      }
    ],
    "types": {
      "t_address": {
        "encoding": "inplace",
        "label": "address",
        "numberOfBytes": "20"
      },
      "t_array(t_address)dyn_storage": {
        "base": "t_address",
        "encoding": "dynamic_array",
        "label": "address[]",
        "numberOfBytes": "32"
      },
      "t_array(t_uint256)50_storage": {
        "base": "t_uint256",
        "encoding": "inplace",
        "label": "uint256[50]",
        "numberOfBytes": "1600"
      },
      "t_bool": {
        "encoding": "inplace",
        "label": "bool",
        "numberOfBytes": "1"
      },
      "t_contract(IEACAggregatorProxy)686": {
        "encoding": "inplace",
        "label": "contract IEACAggregatorProxy",
        "numberOfBytes": "20"
      },
      "t_contract(ITransferStrategyBase)733": {
        "encoding": "inplace",
        "label": "contract ITransferStrategyBase",
        "numberOfBytes": "20"
      },
      "t_mapping(t_address,t_address)": {
        "encoding": "mapping",
        "key": "t_address",
        "label": "mapping(address => address)",
        "numberOfBytes": "32",
        "value": "t_address"
      },
      "t_mapping(t_address,t_bool)": {
        "encoding": "mapping",
        "key": "t_address",
        "label": "mapping(address => bool)",
        "numberOfBytes": "32",
        "value": "t_bool"
      },
      "t_mapping(t_address,t_contract(IEACAggregatorProxy)686)": {
        "encoding": "mapping",
        "key": "t_address",
        "label": "mapping(address => contract IEACAggregatorProxy)",
        "numberOfBytes": "32",
        "value": "t_contract(IEACAggregatorProxy)686"
      },
      "t_mapping(t_address,t_contract(ITransferStrategyBase)733)": {
        "encoding": "mapping",
        "key": "t_address",
        "label": "mapping(address => contract ITransferStrategyBase)",
        "numberOfBytes": "32",
        "value": "t_contract(ITransferStrategyBase)733"
      },
      "t_mapping(t_address,t_struct(AssetData)796_storage)": {
        "encoding": "mapping",
        "key": "t_address",
        "label": "mapping(address => struct RewardsDataTypes.AssetData)",
        "numberOfBytes": "32",
        "value": "t_struct(AssetData)796_storage"
      },
      "t_mapping(t_address,t_struct(RewardData)782_storage)": {
        "encoding": "mapping",
        "key": "t_address",
        "label": "mapping(address => struct RewardsDataTypes.RewardData)",
        "numberOfBytes": "32",
        "value": "t_struct(RewardData)782_storage"
      },
      "t_mapping(t_address,t_struct(UserData)768_storage)": {
        "encoding": "mapping",
        "key": "t_address",
        "label": "mapping(address => struct RewardsDataTypes.UserData)",
        "numberOfBytes": "32",
        "value": "t_struct(UserData)768_storage"
      },
      "t_mapping(t_uint128,t_address)": {
        "encoding": "mapping",
        "key": "t_uint128",
        "label": "mapping(uint128 => address)",
        "numberOfBytes": "32",
        "value": "t_address"
      },
      "t_struct(AssetData)796_storage": {
        "encoding": "inplace",
        "label": "struct RewardsDataTypes.AssetData",
        "members": [
          {
            "astId": 787,
            "contract": "contracts/periphery-v3/contracts/rewards/RewardsControllerV2.sol:RewardsControllerV2",
            "label": "rewards",
            "offset": 0,
            "slot": "0",
            "type": "t_mapping(t_address,t_struct(RewardData)782_storage)"
          },
          {
            "astId": 791,
            "contract": "contracts/periphery-v3/contracts/rewards/RewardsControllerV2.sol:RewardsControllerV2",
            "label": "availableRewards",
            "offset": 0,
            "slot": "1",
            "type": "t_mapping(t_uint128,t_address)"
          },
          {
            "astId": 793,
            "contract": "contracts/periphery-v3/contracts/rewards/RewardsControllerV2.sol:RewardsControllerV2",
            "label": "availableRewardsCount",
            "offset": 0,
            "slot": "2",
            "type": "t_uint128"
          },
          {
            "astId": 795,
            "contract": "contracts/periphery-v3/contracts/rewards/RewardsControllerV2.sol:RewardsControllerV2",
            "label": "decimals",
            "offset": 16,
            "slot": "2",
            "type": "t_uint8"
          }
        ],
        "numberOfBytes": "96"
      },
      "t_struct(RewardData)782_storage": {
        "encoding": "inplace",
        "label": "struct RewardsDataTypes.RewardData",
        "members": [
          {
            "astId": 770,
            "contract": "contracts/periphery-v3/contracts/rewards/RewardsControllerV2.sol:RewardsControllerV2",
            "label": "index",
            "offset": 0,
            "slot": "0",
            "type": "t_uint104"
          },
          {
            "astId": 772,
            "contract": "contracts/periphery-v3/contracts/rewards/RewardsControllerV2.sol:RewardsControllerV2",
            "label": "emissionPerSecond",
            "offset": 13,
            "slot": "0",
            "type": "t_uint88"
          },
          {
            "astId": 774,
            "contract": "contracts/periphery-v3/contracts/rewards/RewardsControllerV2.sol:RewardsControllerV2",
            "label": "lastUpdateTimestamp",
            "offset": 24,
            "slot": "0",
            "type": "t_uint32"
          },
          {
            "astId": 776,
            "contract": "contracts/periphery-v3/contracts/rewards/RewardsControllerV2.sol:RewardsControllerV2",
            "label": "distributionEnd",
            "offset": 28,
            "slot": "0",
            "type": "t_uint32"
          },
          {
            "astId": 781,
            "contract": "contracts/periphery-v3/contracts/rewards/RewardsControllerV2.sol:RewardsControllerV2",
            "label": "usersData",
            "offset": 0,
            "slot": "1",
            "type": "t_mapping(t_address,t_struct(UserData)768_storage)"
          }
        ],
        "numberOfBytes": "64"
      },
      "t_struct(UserData)768_storage": {
        "encoding": "inplace",
        "label": "struct RewardsDataTypes.UserData",
        "members": [
          {
            "astId": 765,
            "contract": "contracts/periphery-v3/contracts/rewards/RewardsControllerV2.sol:RewardsControllerV2",
            "label": "index",
            "offset": 0,
            "slot": "0",
            "type": "t_uint104"
          },
          {
            "astId": 767,
            "contract": "contracts/periphery-v3/contracts/rewards/RewardsControllerV2.sol:RewardsControllerV2",
            "label": "accrued",
            "offset": 13,
            "slot": "0",
            "type": "t_uint128"
          }
        ],
        "numberOfBytes": "32"
      },
      "t_uint104": {
        "encoding": "inplace",
        "label": "uint104",
        "numberOfBytes": "13"
      },
      "t_uint128": {
        "encoding": "inplace",
        "label": "uint128",
        "numberOfBytes": "16"
      },
      "t_uint256": {
        "encoding": "inplace",
        "label": "uint256",
        "numberOfBytes": "32"
      },
      "t_uint32": {
        "encoding": "inplace",
        "label": "uint32",
        "numberOfBytes": "4"
      },
      "t_uint8": {
        "encoding": "inplace",
        "label": "uint8",
        "numberOfBytes": "1"
      },
      "t_uint88": {
        "encoding": "inplace",
        "label": "uint88",
        "numberOfBytes": "11"
      }
    }
  }
}