{
  "address": "0xA23E2b1aD0873E0c8F9132F89344A6144DaA7295",
  "abi": [
    {
      "inputs": [
        {
          "internalType": "contract IPoolAddressesProvider",
          "name": "addressesProvider",
          "type": "address"
        },
        {
          "internalType": "contract IParaSwapAugustusRegistry",
          "name": "augustusRegistry",
          "type": "address"
        },
        {
          "internalType": "address",
          "name": "owner",
          "type": "address"
        }
      ],
      "stateMutability": "nonpayable",
      "type": "constructor"
    },
    {
      "anonymous": false,
      "inputs": [
        {
          "indexed": true,
          "internalType": "address",
          "name": "fromAsset",
          "type": "address"
        },
        {
          "indexed": true,
          "internalType": "address",
          "name": "toAsset",
          "type": "address"
        },
        {
          "indexed": false,
          "internalType": "uint256",
          "name": "amountSold",
          "type": "uint256"
        },
        {
          "indexed": false,
          "internalType": "uint256",
          "name": "receivedAmount",
          "type": "uint256"
        }
      ],
      "name": "Bought",
      "type": "event"
    },
    {
      "anonymous": false,
      "inputs": [
        {
          "indexed": true,
          "internalType": "address",
          "name": "previousOwner",
          "type": "address"
        },
        {
          "indexed": true,
          "internalType": "address",
          "name": "newOwner",
          "type": "address"
        }
      ],
      "name": "OwnershipTransferred",
      "type": "event"
    },
    {
      "anonymous": false,
      "inputs": [
        {
          "indexed": true,
          "internalType": "address",
          "name": "fromAsset",
          "type": "address"
        },
        {
          "indexed": true,
          "internalType": "address",
          "name": "toAsset",
          "type": "address"
        },
        {
          "indexed": false,
          "internalType": "uint256",
          "name": "fromAmount",
          "type": "uint256"
        },
        {
          "indexed": false,
          "internalType": "uint256",
          "name": "receivedAmount",
          "type": "uint256"
        }
      ],
      "name": "Swapped",
      "type": "event"
    },
    {
      "inputs": [],
      "name": "ADDRESSES_PROVIDER",
      "outputs": [
        {
          "internalType": "contract IPoolAddressesProvider",
          "name": "",
          "type": "address"
        }
      ],
      "stateMutability": "view",
      "type": "function"
    },
    {
      "inputs": [],
      "name": "AUGUSTUS_REGISTRY",
      "outputs": [
        {
          "internalType": "contract IParaSwapAugustusRegistry",
          "name": "",
          "type": "address"
        }
      ],
      "stateMutability": "view",
      "type": "function"
    },
    {
      "inputs": [],
      "name": "MAX_SLIPPAGE_PERCENT",
      "outputs": [
        {
          "internalType": "uint256",
          "name": "",
          "type": "uint256"
        }
      ],
      "stateMutability": "view",
      "type": "function"
    },
    {
      "inputs": [],
      "name": "ORACLE",
      "outputs": [
        {
          "internalType": "contract IPriceOracleGetter",
          "name": "",
          "type": "address"
        }
      ],
      "stateMutability": "view",
      "type": "function"
    },
    {
      "inputs": [],
      "name": "POOL",
      "outputs": [
        {
          "internalType": "contract IPool",
          "name": "",
          "type": "address"
        }
      ],
      "stateMutability": "view",
      "type": "function"
    },
    {
      "inputs": [
        {
          "internalType": "address",
          "name": "asset",
          "type": "address"
        },
        {
          "internalType": "uint256",
          "name": "amount",
          "type": "uint256"
        },
        {
          "internalType": "uint256",
          "name": "premium",
          "type": "uint256"
        },
        {
          "internalType": "address",
          "name": "initiator",
          "type": "address"
        },
        {
          "internalType": "bytes",
          "name": "params",
          "type": "bytes"
        }
      ],
      "name": "executeOperation",
      "outputs": [
        {
          "internalType": "bool",
          "name": "",
          "type": "bool"
        }
      ],
      "stateMutability": "nonpayable",
      "type": "function"
    },
    {
      "inputs": [],
      "name": "owner",
      "outputs": [
        {
          "internalType": "address",
          "name": "",
          "type": "address"
        }
      ],
      "stateMutability": "view",
      "type": "function"
    },
    {
      "inputs": [],
      "name": "renounceOwnership",
      "outputs": [],
      "stateMutability": "nonpayable",
      "type": "function"
    },
    {
      "inputs": [
        {
          "internalType": "contract IERC20",
          "name": "token",
          "type": "address"
        }
      ],
      "name": "rescueTokens",
      "outputs": [],
      "stateMutability": "nonpayable",
      "type": "function"
    },
    {
      "inputs": [
        {
          "internalType": "contract IERC20Detailed",
          "name": "collateralAsset",
          "type": "address"
        },
        {
          "internalType": "contract IERC20Detailed",
          "name": "debtAsset",
          "type": "address"
        },
        {
          "internalType": "uint256",
          "name": "collateralAmount",
          "type": "uint256"
        },
        {
          "internalType": "uint256",
          "name": "debtRepayAmount",
          "type": "uint256"
        },
        {
          "internalType": "uint256",
          "name": "debtRateMode",
          "type": "uint256"
        },
        {
          "internalType": "uint256",
          "name": "buyAllBalanceOffset",
          "type": "uint256"
        },
        {
          "internalType": "bytes",
          "name": "paraswapData",
          "type": "bytes"
        },
        {
          "components": [
            {
              "internalType": "uint256",
              "name": "amount",
              "type": "uint256"
            },
            {
              "internalType": "uint256",
              "name": "deadline",
              "type": "uint256"
            },
            {
              "internalType": "uint8",
              "name": "v",
              "type": "uint8"
            },
            {
              "internalType": "bytes32",
              "name": "r",
              "type": "bytes32"
            },
            {
              "internalType": "bytes32",
              "name": "s",
              "type": "bytes32"
            }
          ],
          "internalType": "struct BaseParaSwapAdapter.PermitSignature",
          "name": "permitSignature",
          "type": "tuple"
        }
      ],
      "name": "swapAndRepay",
      "outputs": [],
      "stateMutability": "nonpayable",
      "type": "function"
    },
    {
      "inputs": [
        {
          "internalType": "address",
          "name": "newOwner",
          "type": "address"
        }
      ],
      "name": "transferOwnership",
      "outputs": [],
      "stateMutability": "nonpayable",
      "type": "function"
    }
  ],
  "transactionHash": "0xf5a180092a30667dfe66602e25bfa68a4a59e2aa27b9e06df71ac6a3ccdb8b21",
  "args": [
    "0xc48790B692B6e622d494d09317F1450e21DBa4b4",
    "0xdC6E2b14260F972ad4e5a31c68294Fba7E720701",
    "0xd955F0c167adbf7d553fc4D59A964A1b115Cc093"
  ],
  "numDeployments": 1,
  "solcInputHash": "fbd0f26b648da936f7e03657ef800047",
  "bytecode": "0x6101006040523480156200001257600080fd5b50604051620032b7380380620032b783398101604081905262000035916200036c565b82828180806001600160a01b03166080816001600160a01b031681525050806001600160a01b031663026b1d5f6040518163ffffffff1660e01b8152600401602060405180830381865afa15801562000092573d6000803e3d6000fd5b505050506040513d601f19601f82011682018060405250810190620000b89190620003c0565b6001600160a01b031660a05250600080546001600160a01b0319163390811782556040519091829160008051602062003297833981519152908290a350806001600160a01b031663fca513a86040518163ffffffff1660e01b8152600401602060405180830381865afa15801562000134573d6000803e3d6000fd5b505050506040513d601f19601f820116820180604052508101906200015a9190620003c0565b6001600160a01b0390811660c05260405163fb04e17b60e01b815260006004820152908316915063fb04e17b90602401602060405180830381865afa158015620001a8573d6000803e3d6000fd5b505050506040513d601f19601f82011682018060405250810190620001ce9190620003e7565b15620002215760405162461bcd60e51b815260206004820152601c60248201527f4e6f7420612076616c696420417567757374757320616464726573730000000060448201526064015b60405180910390fd5b6001600160a01b031660e05250600180556200023d8162000246565b5050506200040b565b6000546001600160a01b03163314620002a25760405162461bcd60e51b815260206004820181905260248201527f4f776e61626c653a2063616c6c6572206973206e6f7420746865206f776e6572604482015260640162000218565b6001600160a01b038116620003095760405162461bcd60e51b815260206004820152602660248201527f4f776e61626c653a206e6577206f776e657220697320746865207a65726f206160448201526564647265737360d01b606482015260840162000218565b600080546040516001600160a01b03808516939216916000805160206200329783398151915291a3600080546001600160a01b0319166001600160a01b0392909216919091179055565b6001600160a01b03811681146200036957600080fd5b50565b6000806000606084860312156200038257600080fd5b83516200038f8162000353565b6020850151909350620003a28162000353565b6040850151909250620003b58162000353565b809150509250925092565b600060208284031215620003d357600080fd5b8151620003e08162000353565b9392505050565b600060208284031215620003fa57600080fd5b81518015158114620003e057600080fd5b60805160a05160c05160e051612de3620004b46000396000818161019901526110640152600081816101720152611f5a0152600081816101db01528181610411015281816105d101528181610613015281816106910152818161070a0152818161074c015281816107ca01528181610c1f01528181610c6101528181610ce101528181610d8501528181610db001528181611bab0152611d5a0152600060e70152612de36000f3fe608060405234801561001057600080fd5b50600436106100c85760003560e01c80633a829867116100815780637535d2461161005b5780637535d246146101d65780638da5cb5b146101fd578063f2fde38b1461021b57600080fd5b80633a829867146101945780634db9dc97146101bb578063715018a6146101ce57600080fd5b80631b11d0ff116100b25780631b11d0ff1461013357806332e4b2861461015657806338013f021461016d57600080fd5b8062ae3bf8146100cd5780630542975c146100e2575b600080fd5b6100e06100db36600461244a565b61022e565b005b6101097f000000000000000000000000000000000000000000000000000000000000000081565b60405173ffffffffffffffffffffffffffffffffffffffff90911681526020015b60405180910390f35b6101466101413660046124b0565b610385565b604051901515815260200161012a565b61015f610bb881565b60405190815260200161012a565b6101097f000000000000000000000000000000000000000000000000000000000000000081565b6101097f000000000000000000000000000000000000000000000000000000000000000081565b6100e06101c936600461252c565b6104bc565b6100e0610849565b6101097f000000000000000000000000000000000000000000000000000000000000000081565b60005473ffffffffffffffffffffffffffffffffffffffff16610109565b6100e061022936600461244a565b610939565b60005473ffffffffffffffffffffffffffffffffffffffff1633146102b4576040517f08c379a000000000000000000000000000000000000000000000000000000000815260206004820181905260248201527f4f776e61626c653a2063616c6c6572206973206e6f7420746865206f776e657260448201526064015b60405180910390fd5b6103826102d660005473ffffffffffffffffffffffffffffffffffffffff1690565b6040517f70a0823100000000000000000000000000000000000000000000000000000000815230600482015273ffffffffffffffffffffffffffffffffffffffff8416906370a0823190602401602060405180830381865afa158015610340573d6000803e3d6000fd5b505050506040513d601f19601f8201168201806040525081019061036491906125f5565b73ffffffffffffffffffffffffffffffffffffffff84169190610aea565b50565b6000600260015414156103f4576040517f08c379a000000000000000000000000000000000000000000000000000000000815260206004820152601f60248201527f5265656e7472616e637947756172643a207265656e7472616e742063616c6c0060448201526064016102ab565b60026001553373ffffffffffffffffffffffffffffffffffffffff7f00000000000000000000000000000000000000000000000000000000000000001614610498576040517f08c379a000000000000000000000000000000000000000000000000000000000815260206004820152601360248201527f43414c4c45525f4d5553545f42455f504f4f4c0000000000000000000000000060448201526064016102ab565b8584886104a986868a858588610bc3565b5050600180805598975050505050505050565b60026001541415610529576040517f08c379a000000000000000000000000000000000000000000000000000000000815260206004820152601f60248201527f5265656e7472616e637947756172643a207265656e7472616e742063616c6c0060448201526064016102ab565b600260015561053b8886868933610e07565b955061055789338961055236869003860186612740565b610fda565b600061059f8585858080601f0160208091040260200160405190810160405280939291908181526020018383808284376000920191909152508f92508e91508d90508c611000565b905060006105ad828a61278b565b905080156106ee576105f773ffffffffffffffffffffffffffffffffffffffff8c167f00000000000000000000000000000000000000000000000000000000000000006000611846565b61063873ffffffffffffffffffffffffffffffffffffffff8c167f000000000000000000000000000000000000000000000000000000000000000083611846565b6040517fe8eda9df00000000000000000000000000000000000000000000000000000000815273ffffffffffffffffffffffffffffffffffffffff8c8116600483015260248201839052336044830152600060648301527f0000000000000000000000000000000000000000000000000000000000000000169063e8eda9df90608401600060405180830381600087803b1580156106d557600080fd5b505af11580156106e9573d6000803e3d6000fd5b505050505b61073073ffffffffffffffffffffffffffffffffffffffff8b167f00000000000000000000000000000000000000000000000000000000000000006000611846565b61077173ffffffffffffffffffffffffffffffffffffffff8b167f00000000000000000000000000000000000000000000000000000000000000008a611846565b6040517f573ade8100000000000000000000000000000000000000000000000000000000815273ffffffffffffffffffffffffffffffffffffffff8b81166004830152602482018a9052604482018990523360648301527f0000000000000000000000000000000000000000000000000000000000000000169063573ade81906084016020604051808303816000875af1158015610813573d6000803e3d6000fd5b505050506040513d601f19601f8201168201806040525081019061083791906125f5565b50506001805550505050505050505050565b60005473ffffffffffffffffffffffffffffffffffffffff1633146108ca576040517f08c379a000000000000000000000000000000000000000000000000000000000815260206004820181905260248201527f4f776e61626c653a2063616c6c6572206973206e6f7420746865206f776e657260448201526064016102ab565b6000805460405173ffffffffffffffffffffffffffffffffffffffff909116907f8be0079c531659141344cd1fd0a4f28419497f9722a3daafe3b4186f6b6457e0908390a3600080547fffffffffffffffffffffffff0000000000000000000000000000000000000000169055565b60005473ffffffffffffffffffffffffffffffffffffffff1633146109ba576040517f08c379a000000000000000000000000000000000000000000000000000000000815260206004820181905260248201527f4f776e61626c653a2063616c6c6572206973206e6f7420746865206f776e657260448201526064016102ab565b73ffffffffffffffffffffffffffffffffffffffff8116610a5d576040517f08c379a000000000000000000000000000000000000000000000000000000000815260206004820152602660248201527f4f776e61626c653a206e6577206f776e657220697320746865207a65726f206160448201527f646472657373000000000000000000000000000000000000000000000000000060648201526084016102ab565b6000805460405173ffffffffffffffffffffffffffffffffffffffff808516939216917f8be0079c531659141344cd1fd0a4f28419497f9722a3daafe3b4186f6b6457e091a3600080547fffffffffffffffffffffffff00000000000000000000000000000000000000001673ffffffffffffffffffffffffffffffffffffffff92909216919091179055565b6040517fa9059cbb0000000000000000000000000000000000000000000000000000000080825273ffffffffffffffffffffffffffffffffffffffff84166004830152602482018390529060008060448382895af1610b4d573d6000803e3d6000fd5b50610b5784611a04565b610bbd576040517f08c379a000000000000000000000000000000000000000000000000000000000815260206004820152601560248201527f475076323a206661696c6564207472616e73666572000000000000000000000060448201526064016102ab565b50505050565b60008080808080610bd68b8d018d6127e8565b955095509550955095509550610bef868486888d610e07565b94506000610c0185848b8a8c8b611000565b9050610c4573ffffffffffffffffffffffffffffffffffffffff88167f00000000000000000000000000000000000000000000000000000000000000006000611846565b610c8673ffffffffffffffffffffffffffffffffffffffff88167f000000000000000000000000000000000000000000000000000000000000000088611846565b6040517f573ade8100000000000000000000000000000000000000000000000000000000815273ffffffffffffffffffffffffffffffffffffffff888116600483015260248201889052604482018690528b811660648301527f0000000000000000000000000000000000000000000000000000000000000000169063573ade81906084016020604051808303816000875af1158015610d2a573d6000803e3d6000fd5b505050506040513d601f19601f82011682018060405250810190610d4e91906125f5565b506000610d5b828d611ad0565b9050610d698a8c8386610fda565b610dab73ffffffffffffffffffffffffffffffffffffffff8b167f00000000000000000000000000000000000000000000000000000000000000006000611846565b610df77f0000000000000000000000000000000000000000000000000000000000000000610dd98b8f611ad0565b73ffffffffffffffffffffffffffffffffffffffff8d169190611846565b5050505050505050505050505050565b600080610e1387611ae6565b905060006001876002811115610e2b57610e2b6128a9565b6002811115610e3c57610e3c6128a9565b14610e4c57816101400151610e53565b8161012001515b6040517f70a0823100000000000000000000000000000000000000000000000000000000815273ffffffffffffffffffffffffffffffffffffffff86811660048301529192506000918316906370a0823190602401602060405180830381865afa158015610ec5573d6000803e3d6000fd5b505050506040513d601f19601f82011682018060405250810190610ee991906125f5565b90508615610f635785811115610f5b576040517f08c379a000000000000000000000000000000000000000000000000000000000815260206004820152601c60248201527f494e53554646494349454e545f414d4f554e545f544f5f52455041590000000060448201526064016102ab565b809550610fcd565b80861115610fcd576040517f08c379a000000000000000000000000000000000000000000000000000000000815260206004820152601960248201527f494e56414c49445f444542545f52455041595f414d4f554e540000000000000060448201526064016102ab565b5093979650505050505050565b6000610fe585611ae6565b61010001519050610ff98582868686611c17565b5050505050565b6000806000878060200190518101906110199190612904565b6040517ffb04e17b00000000000000000000000000000000000000000000000000000000815273ffffffffffffffffffffffffffffffffffffffff80831660048301529294509092507f00000000000000000000000000000000000000000000000000000000000000009091169063fb04e17b90602401602060405180830381865afa1580156110ad573d6000803e3d6000fd5b505050506040513d601f19601f820116820180604052508101906110d19190612992565b611137576040517f08c379a000000000000000000000000000000000000000000000000000000000815260206004820152601060248201527f494e56414c49445f41554755535455530000000000000000000000000000000060448201526064016102ab565b600061114288611e30565b60ff169050600061115288611e30565b60ff16905060006111628a611f12565b9050600061116f8a611f12565b905060006111c7611184612710610bb8611ad0565b6111c161119c61119588600a612ad4565b8790611fc7565b6111bb6111b46111ad8b600a612ad4565b8890611fc7565b8e90611fc7565b90611ff1565b90612004565b9050808a1115611259576040517f08c379a000000000000000000000000000000000000000000000000000000000815260206004820152602360248201527f6d6178416d6f756e74546f5377617020657863656564206d617820736c69707060448201527f616765000000000000000000000000000000000000000000000000000000000060648201526084016102ab565b50506040517f70a082310000000000000000000000000000000000000000000000000000000081523060048201526000935073ffffffffffffffffffffffffffffffffffffffff8b1692506370a082319150602401602060405180830381865afa1580156112cb573d6000803e3d6000fd5b505050506040513d601f19601f820116820180604052508101906112ef91906125f5565b90508581101561135b576040517f08c379a000000000000000000000000000000000000000000000000000000000815260206004820181905260248201527f494e53554646494349454e545f42414c414e43455f4245464f52455f5357415060448201526064016102ab565b6040517f70a0823100000000000000000000000000000000000000000000000000000000815230600482015260009073ffffffffffffffffffffffffffffffffffffffff8916906370a0823190602401602060405180830381865afa1580156113c8573d6000803e3d6000fd5b505050506040513d601f19601f820116820180604052508101906113ec91906125f5565b905060008373ffffffffffffffffffffffffffffffffffffffff1663d2c4b5986040518163ffffffff1660e01b8152600401602060405180830381865afa15801561143b573d6000803e3d6000fd5b505050506040513d601f19601f8201168201806040525081019061145f9190612af0565b905061148373ffffffffffffffffffffffffffffffffffffffff8b16826000611846565b6114a473ffffffffffffffffffffffffffffffffffffffff8b16828a611846565b8b156115365760048c101580156114c7575084516114c3906020612047565b8c11155b61152d576040517f08c379a000000000000000000000000000000000000000000000000000000000815260206004820152601d60248201527f544f5f414d4f554e545f4f46465345545f4f55545f4f465f52414e474500000060448201526064016102ab565b8660208d018601525b60008473ffffffffffffffffffffffffffffffffffffffff168660405161155d9190612b0d565b6000604051808303816000865af19150503d806000811461159a576040519150601f19603f3d011682016040523d82523d6000602084013e61159f565b606091505b50509050806115b2573d6000803e3d6000fd5b6040517f70a0823100000000000000000000000000000000000000000000000000000000815230600482015260009073ffffffffffffffffffffffffffffffffffffffff8d16906370a0823190602401602060405180830381865afa15801561161f573d6000803e3d6000fd5b505050506040513d601f19601f8201168201806040525081019061164391906125f5565b905061164f818661278b565b9750898811156116bb576040517f08c379a000000000000000000000000000000000000000000000000000000000815260206004820152601860248201527f57524f4e475f42414c414e43455f41465445525f53574150000000000000000060448201526064016102ab565b6040517f70a0823100000000000000000000000000000000000000000000000000000000815230600482015260009061175890869073ffffffffffffffffffffffffffffffffffffffff8f16906370a0823190602401602060405180830381865afa15801561172e573d6000803e3d6000fd5b505050506040513d601f19601f8201168201806040525081019061175291906125f5565b90612047565b9050898110156117c4576040517f08c379a000000000000000000000000000000000000000000000000000000000815260206004820152601c60248201527f494e53554646494349454e545f414d4f554e545f52454345495645440000000060448201526064016102ab565b8b73ffffffffffffffffffffffffffffffffffffffff168d73ffffffffffffffffffffffffffffffffffffffff167fbf77fd13a39d14dc0da779342c14105c38d9a5d0c60f2caa22f5fd1d5525416d8b8460405161182c929190918252602082015260400190565b60405180910390a350505050505050509695505050505050565b8015806118e657506040517fdd62ed3e00000000000000000000000000000000000000000000000000000000815230600482015273ffffffffffffffffffffffffffffffffffffffff838116602483015284169063dd62ed3e90604401602060405180830381865afa1580156118c0573d6000803e3d6000fd5b505050506040513d601f19601f820116820180604052508101906118e491906125f5565b155b611972576040517f08c379a000000000000000000000000000000000000000000000000000000000815260206004820152603660248201527f5361666545524332303a20617070726f76652066726f6d206e6f6e2d7a65726f60448201527f20746f206e6f6e2d7a65726f20616c6c6f77616e63650000000000000000000060648201526084016102ab565b6040805173ffffffffffffffffffffffffffffffffffffffff8416602482015260448082018490528251808303909101815260649091019091526020810180517bffffffffffffffffffffffffffffffffffffffffffffffffffffffff167f095ea7b3000000000000000000000000000000000000000000000000000000001790526119ff908490612057565b505050565b6000611a44565b7f08c379a00000000000000000000000000000000000000000000000000000000060005260206004528060245250806044525060646000fd5b3d8015611a835760208114611abd57611a7e7f475076323a206d616c666f726d6564207472616e7366657220726573756c7400601f611a0b565b611aca565b823b611ab457611ab47f475076323a206e6f74206120636f6e74726163740000000000000000000000006014611a0b565b60019150611aca565b3d6000803e600051151591505b50919050565b80820182811015611ae057600080fd5b92915050565b604080516102008101825260006101e08201818152825260208201819052918101829052606081018290526080810182905260a0810182905260c0810182905260e08101829052610100810182905261012081018290526101408101829052610160810182905261018081018290526101a081018290526101c08101919091526040517f35ea6a7500000000000000000000000000000000000000000000000000000000815273ffffffffffffffffffffffffffffffffffffffff83811660048301527f000000000000000000000000000000000000000000000000000000000000000016906335ea6a75906024016101e060405180830381865afa158015611bf3573d6000803e3d6000fd5b505050506040513d601f19601f82011682018060405250810190611ae09190612bb2565b602081015115611ce457805160208201516040808401516060850151608086015192517fd505accf00000000000000000000000000000000000000000000000000000000815273ffffffffffffffffffffffffffffffffffffffff89811660048301523060248301526044820196909652606481019490945260ff909116608484015260a483015260c48201529085169063d505accf9060e401600060405180830381600087803b158015611ccb57600080fd5b505af1158015611cdf573d6000803e3d6000fd5b505050505b611d0673ffffffffffffffffffffffffffffffffffffffff8516843085612163565b6040517f69328dec00000000000000000000000000000000000000000000000000000000815273ffffffffffffffffffffffffffffffffffffffff86811660048301526024820184905230604483015283917f0000000000000000000000000000000000000000000000000000000000000000909116906369328dec906064016020604051808303816000875af1158015611da5573d6000803e3d6000fd5b505050506040513d601f19601f82011682018060405250810190611dc991906125f5565b14610ff9576040517f08c379a000000000000000000000000000000000000000000000000000000000815260206004820152601b60248201527f554e45585045435445445f414d4f554e545f57495448445241574e000000000060448201526064016102ab565b6000808273ffffffffffffffffffffffffffffffffffffffff1663313ce5676040518163ffffffff1660e01b8152600401602060405180830381865afa158015611e7e573d6000803e3d6000fd5b505050506040513d601f19601f82011682018060405250810190611ea29190612cd5565b9050604d8160ff161115611ae0576040517f08c379a000000000000000000000000000000000000000000000000000000000815260206004820152601a60248201527f544f4f5f4d414e595f444543494d414c535f4f4e5f544f4b454e00000000000060448201526064016102ab565b6040517fb3596f0700000000000000000000000000000000000000000000000000000000815273ffffffffffffffffffffffffffffffffffffffff82811660048301526000917f00000000000000000000000000000000000000000000000000000000000000009091169063b3596f0790602401602060405180830381865afa158015611fa3573d6000803e3d6000fd5b505050506040513d601f19601f82011682018060405250810190611ae091906125f5565b6000821580611fe857505081810281838281611fe557611fe5612cf2565b04145b611ae057600080fd5b6000611ffd8284612d21565b9392505050565b600081157fffffffffffffffffffffffffffffffffffffffffffffffffffffffffffffec778390048411151761203957600080fd5b506127109102611388010490565b80820382811115611ae057600080fd5b60006120b9826040518060400160405280602081526020017f5361666545524332303a206c6f772d6c6576656c2063616c6c206661696c65648152508573ffffffffffffffffffffffffffffffffffffffff1661223e9092919063ffffffff16565b8051909150156119ff57808060200190518101906120d79190612992565b6119ff576040517f08c379a000000000000000000000000000000000000000000000000000000000815260206004820152602a60248201527f5361666545524332303a204552433230206f7065726174696f6e20646964206e60448201527f6f7420737563636565640000000000000000000000000000000000000000000060648201526084016102ab565b6040517f23b872dd0000000000000000000000000000000000000000000000000000000080825273ffffffffffffffffffffffffffffffffffffffff8581166004840152841660248301526044820183905290600080606483828a5af16121ce573d6000803e3d6000fd5b506121d885611a04565b610ff9576040517f08c379a000000000000000000000000000000000000000000000000000000000815260206004820152601960248201527f475076323a206661696c6564207472616e7366657246726f6d0000000000000060448201526064016102ab565b606061224d8484600085612255565b949350505050565b6060824710156122e7576040517f08c379a000000000000000000000000000000000000000000000000000000000815260206004820152602660248201527f416464726573733a20696e73756666696369656e742062616c616e636520666f60448201527f722063616c6c000000000000000000000000000000000000000000000000000060648201526084016102ab565b843b61234f576040517f08c379a000000000000000000000000000000000000000000000000000000000815260206004820152601d60248201527f416464726573733a2063616c6c20746f206e6f6e2d636f6e747261637400000060448201526064016102ab565b6000808673ffffffffffffffffffffffffffffffffffffffff1685876040516123789190612b0d565b60006040518083038185875af1925050503d80600081146123b5576040519150601f19603f3d011682016040523d82523d6000602084013e6123ba565b606091505b50915091506123ca8282866123d5565b979650505050505050565b606083156123e4575081611ffd565b8251156123f45782518084602001fd5b816040517f08c379a00000000000000000000000000000000000000000000000000000000081526004016102ab9190612d5c565b73ffffffffffffffffffffffffffffffffffffffff8116811461038257600080fd5b60006020828403121561245c57600080fd5b8135611ffd81612428565b60008083601f84011261247957600080fd5b50813567ffffffffffffffff81111561249157600080fd5b6020830191508360208285010111156124a957600080fd5b9250929050565b60008060008060008060a087890312156124c957600080fd5b86356124d481612428565b9550602087013594506040870135935060608701356124f281612428565b9250608087013567ffffffffffffffff81111561250e57600080fd5b61251a89828a01612467565b979a9699509497509295939492505050565b6000806000806000806000806000898b0361018081121561254c57600080fd5b8a3561255781612428565b995060208b013561256781612428565b985060408b0135975060608b0135965060808b0135955060a08b0135945060c08b013567ffffffffffffffff81111561259f57600080fd5b6125ab8d828e01612467565b90955093505060a07fffffffffffffffffffffffffffffffffffffffffffffffffffffffffffffff20820112156125e157600080fd5b5060e08a0190509295985092959850929598565b60006020828403121561260757600080fd5b5051919050565b7f4e487b7100000000000000000000000000000000000000000000000000000000600052604160045260246000fd5b6040516101e0810167ffffffffffffffff811182821017156126615761266161260e565b60405290565b604051601f82017fffffffffffffffffffffffffffffffffffffffffffffffffffffffffffffffe016810167ffffffffffffffff811182821017156126ae576126ae61260e565b604052919050565b60ff8116811461038257600080fd5b600060a082840312156126d757600080fd5b60405160a0810181811067ffffffffffffffff821117156126fa576126fa61260e565b80604052508091508235815260208301356020820152604083013561271e816126b6565b8060408301525060608301356060820152608083013560808201525092915050565b600060a0828403121561275257600080fd5b611ffd83836126c5565b7f4e487b7100000000000000000000000000000000000000000000000000000000600052601160045260246000fd5b60008282101561279d5761279d61275c565b500390565b600067ffffffffffffffff8211156127bc576127bc61260e565b50601f017fffffffffffffffffffffffffffffffffffffffffffffffffffffffffffffffe01660200190565b600080600080600080610140878903121561280257600080fd5b863561280d81612428565b9550602087013594506040870135935060608701359250608087013567ffffffffffffffff81111561283e57600080fd5b8701601f8101891361284f57600080fd5b803561286261285d826127a2565b612667565b8181528a602083850101111561287757600080fd5b8160208401602083013760006020838301015280945050505061289d8860a089016126c5565b90509295509295509295565b7f4e487b7100000000000000000000000000000000000000000000000000000000600052602160045260246000fd5b60005b838110156128f35781810151838201526020016128db565b83811115610bbd5750506000910152565b6000806040838503121561291757600080fd5b825167ffffffffffffffff81111561292e57600080fd5b8301601f8101851361293f57600080fd5b805161294d61285d826127a2565b81815286602083850101111561296257600080fd5b6129738260208301602086016128d8565b809450505050602083015161298781612428565b809150509250929050565b6000602082840312156129a457600080fd5b81518015158114611ffd57600080fd5b600181815b80851115612a0d57817fffffffffffffffffffffffffffffffffffffffffffffffffffffffffffffffff048211156129f3576129f361275c565b80851615612a0057918102915b93841c93908002906129b9565b509250929050565b600082612a2457506001611ae0565b81612a3157506000611ae0565b8160018114612a475760028114612a5157612a6d565b6001915050611ae0565b60ff841115612a6257612a6261275c565b50506001821b611ae0565b5060208310610133831016604e8410600b8410161715612a90575081810a611ae0565b612a9a83836129b4565b807fffffffffffffffffffffffffffffffffffffffffffffffffffffffffffffffff04821115612acc57612acc61275c565b029392505050565b6000611ffd8383612a15565b8051612aeb81612428565b919050565b600060208284031215612b0257600080fd5b8151611ffd81612428565b60008251612b1f8184602087016128d8565b9190910192915050565b600060208284031215612b3b57600080fd5b6040516020810181811067ffffffffffffffff82111715612b5e57612b5e61260e565b6040529151825250919050565b80516fffffffffffffffffffffffffffffffff81168114612aeb57600080fd5b805164ffffffffff81168114612aeb57600080fd5b805161ffff81168114612aeb57600080fd5b60006101e08284031215612bc557600080fd5b612bcd61263d565b612bd78484612b29565b8152612be560208401612b6b565b6020820152612bf660408401612b6b565b6040820152612c0760608401612b6b565b6060820152612c1860808401612b6b565b6080820152612c2960a08401612b6b565b60a0820152612c3a60c08401612b8b565b60c0820152612c4b60e08401612ba0565b60e0820152610100612c5e818501612ae0565b90820152610120612c70848201612ae0565b90820152610140612c82848201612ae0565b90820152610160612c94848201612ae0565b90820152610180612ca6848201612b6b565b908201526101a0612cb8848201612b6b565b908201526101c0612cca848201612b6b565b908201529392505050565b600060208284031215612ce757600080fd5b8151611ffd816126b6565b7f4e487b7100000000000000000000000000000000000000000000000000000000600052601260045260246000fd5b600082612d57577f4e487b7100000000000000000000000000000000000000000000000000000000600052601260045260246000fd5b500490565b6020815260008251806020840152612d7b8160408501602087016128d8565b601f017fffffffffffffffffffffffffffffffffffffffffffffffffffffffffffffffe016919091016040019291505056fea264697066735822122019c32d07f15f4b53db55ce4718876702185d66f50b5f6a1f8ca277513ccc135a64736f6c634300080a00338be0079c531659141344cd1fd0a4f28419497f9722a3daafe3b4186f6b6457e0",
  "devdoc": {
    "author": "Aave*",
    "kind": "dev",
    "methods": {
      "executeOperation(address,uint256,uint256,address,bytes)": {
        "details": "Uses the received funds from the flash loan to repay a debt on the protocol on behalf of the user. Then pulls the collateral from the user and swaps it to the debt asset to repay the flash loan. The user should give this contract allowance to pull the ATokens in order to withdraw the underlying asset, swap it and repay the flash loan. Supports only one asset on the flash loan.",
        "params": {
          "amount": "The amount of the flash-borrowed asset",
          "asset": "The address of the flash-borrowed asset",
          "initiator": "The address of the flashloan initiator",
          "params": "The byte-encoded params passed when initiating the flashloan",
          "premium": "The fee of the flash-borrowed asset"
        },
        "returns": {
          "_0": "True if the execution of the operation succeeds, false otherwise   IERC20Detailed debtAsset Address of the debt asset   uint256 debtAmount Amount of debt to be repaid   uint256 rateMode Rate modes of the debt to be repaid   uint256 deadline Deadline for the permit signature   uint256 debtRateMode Rate mode of the debt to be repaid   bytes paraswapData Paraswap Data                    * bytes buyCallData Call data for augustus                    * IParaSwapAugustus augustus Address of Augustus Swapper   PermitSignature permitParams Struct containing the permit signatures, set to all zeroes if not used"
        }
      },
      "owner()": {
        "details": "Returns the address of the current owner."
      },
      "renounceOwnership()": {
        "details": "Leaves the contract without owner. It will not be possible to call `onlyOwner` functions anymore. Can only be called by the current owner. NOTE: Renouncing ownership will leave the contract without an owner, thereby removing any functionality that is only available to the owner."
      },
      "rescueTokens(address)": {
        "details": "Emergency rescue for token stucked on this contract, as failsafe mechanism - Funds should never remain in this contract more time than during transactions - Only callable by the owner"
      },
      "swapAndRepay(address,address,uint256,uint256,uint256,uint256,bytes,(uint256,uint256,uint8,bytes32,bytes32))": {
        "details": "Swaps the user collateral for the debt asset and then repay the debt on the protocol on behalf of the user without using flash loans. This method can be used when the temporary transfer of the collateral asset to this contract does not affect the user position. The user should give this contract allowance to pull the ATokens in order to withdraw the underlying asset",
        "params": {
          "buyAllBalanceOffset": "Set to offset of toAmount in Augustus calldata if wanting to pay entire debt, otherwise 0",
          "collateralAmount": "max Amount of the collateral to be swapped",
          "collateralAsset": "Address of asset to be swapped",
          "debtAsset": "Address of debt asset",
          "debtRateMode": "Rate mode of the debt to be repaid",
          "debtRepayAmount": "Amount of the debt to be repaid, or maximum amount when repaying entire debt",
          "paraswapData": "Data for Paraswap Adapter",
          "permitSignature": "struct containing the permit signature"
        }
      },
      "transferOwnership(address)": {
        "details": "Transfers ownership of the contract to a new account (`newOwner`). Can only be called by the current owner."
      }
    },
    "title": "ParaSwapRepayAdapter",
    "version": 1
  },
  "userdoc": {
    "kind": "user",
    "methods": {},
    "notice": "ParaSwap Adapter to perform a repay of a debt with collateral.",
    "version": 1
  },
  "storageLayout": {
    "storage": [
      {
        "astId": 1472,
        "contract": "@aave/periphery-v3/contracts/adapters/paraswap/ParaSwapRepayAdapter.sol:ParaSwapRepayAdapter",
        "label": "_owner",
        "offset": 0,
        "slot": "0",
        "type": "t_address"
      },
      {
        "astId": 32429,
        "contract": "@aave/periphery-v3/contracts/adapters/paraswap/ParaSwapRepayAdapter.sol:ParaSwapRepayAdapter",
        "label": "_status",
        "offset": 0,
        "slot": "1",
        "type": "t_uint256"
      }
    ],
    "types": {
      "t_address": {
        "encoding": "inplace",
        "label": "address",
        "numberOfBytes": "20"
      },
      "t_uint256": {
        "encoding": "inplace",
        "label": "uint256",
        "numberOfBytes": "32"
      }
    }
  }
}