{
  "address": "0x672b19DdA450120C505214D149Ee7F7B6DEd8C39",
  "abi": [
    {
      "inputs": [
        {
          "internalType": "contract IPoolAddressesProvider",
          "name": "addressesProvider",
          "type": "address"
        },
        {
          "internalType": "contract IParaSwapAugustusRegistry",
          "name": "augustusRegistry",
          "type": "address"
        },
        {
          "internalType": "address",
          "name": "owner",
          "type": "address"
        }
      ],
      "stateMutability": "nonpayable",
      "type": "constructor"
    },
    {
      "anonymous": false,
      "inputs": [
        {
          "indexed": true,
          "internalType": "address",
          "name": "fromAsset",
          "type": "address"
        },
        {
          "indexed": true,
          "internalType": "address",
          "name": "toAsset",
          "type": "address"
        },
        {
          "indexed": false,
          "internalType": "uint256",
          "name": "amountSold",
          "type": "uint256"
        },
        {
          "indexed": false,
          "internalType": "uint256",
          "name": "receivedAmount",
          "type": "uint256"
        }
      ],
      "name": "Bought",
      "type": "event"
    },
    {
      "anonymous": false,
      "inputs": [
        {
          "indexed": true,
          "internalType": "address",
          "name": "previousOwner",
          "type": "address"
        },
        {
          "indexed": true,
          "internalType": "address",
          "name": "newOwner",
          "type": "address"
        }
      ],
      "name": "OwnershipTransferred",
      "type": "event"
    },
    {
      "anonymous": false,
      "inputs": [
        {
          "indexed": true,
          "internalType": "address",
          "name": "fromAsset",
          "type": "address"
        },
        {
          "indexed": true,
          "internalType": "address",
          "name": "toAsset",
          "type": "address"
        },
        {
          "indexed": false,
          "internalType": "uint256",
          "name": "fromAmount",
          "type": "uint256"
        },
        {
          "indexed": false,
          "internalType": "uint256",
          "name": "receivedAmount",
          "type": "uint256"
        }
      ],
      "name": "Swapped",
      "type": "event"
    },
    {
      "inputs": [],
      "name": "ADDRESSES_PROVIDER",
      "outputs": [
        {
          "internalType": "contract IPoolAddressesProvider",
          "name": "",
          "type": "address"
        }
      ],
      "stateMutability": "view",
      "type": "function"
    },
    {
      "inputs": [],
      "name": "AUGUSTUS_REGISTRY",
      "outputs": [
        {
          "internalType": "contract IParaSwapAugustusRegistry",
          "name": "",
          "type": "address"
        }
      ],
      "stateMutability": "view",
      "type": "function"
    },
    {
      "inputs": [],
      "name": "MAX_SLIPPAGE_PERCENT",
      "outputs": [
        {
          "internalType": "uint256",
          "name": "",
          "type": "uint256"
        }
      ],
      "stateMutability": "view",
      "type": "function"
    },
    {
      "inputs": [],
      "name": "ORACLE",
      "outputs": [
        {
          "internalType": "contract IPriceOracleGetter",
          "name": "",
          "type": "address"
        }
      ],
      "stateMutability": "view",
      "type": "function"
    },
    {
      "inputs": [],
      "name": "POOL",
      "outputs": [
        {
          "internalType": "contract IPool",
          "name": "",
          "type": "address"
        }
      ],
      "stateMutability": "view",
      "type": "function"
    },
    {
      "inputs": [
        {
          "internalType": "address",
          "name": "",
          "type": "address"
        },
        {
          "internalType": "uint256",
          "name": "",
          "type": "uint256"
        },
        {
          "internalType": "uint256",
          "name": "",
          "type": "uint256"
        },
        {
          "internalType": "address",
          "name": "",
          "type": "address"
        },
        {
          "internalType": "bytes",
          "name": "",
          "type": "bytes"
        }
      ],
      "name": "executeOperation",
      "outputs": [
        {
          "internalType": "bool",
          "name": "",
          "type": "bool"
        }
      ],
      "stateMutability": "nonpayable",
      "type": "function"
    },
    {
      "inputs": [],
      "name": "owner",
      "outputs": [
        {
          "internalType": "address",
          "name": "",
          "type": "address"
        }
      ],
      "stateMutability": "view",
      "type": "function"
    },
    {
      "inputs": [],
      "name": "renounceOwnership",
      "outputs": [],
      "stateMutability": "nonpayable",
      "type": "function"
    },
    {
      "inputs": [
        {
          "internalType": "contract IERC20",
          "name": "token",
          "type": "address"
        }
      ],
      "name": "rescueTokens",
      "outputs": [],
      "stateMutability": "nonpayable",
      "type": "function"
    },
    {
      "inputs": [
        {
          "internalType": "address",
          "name": "newOwner",
          "type": "address"
        }
      ],
      "name": "transferOwnership",
      "outputs": [],
      "stateMutability": "nonpayable",
      "type": "function"
    },
    {
      "inputs": [
        {
          "internalType": "contract IERC20Detailed",
          "name": "assetToSwapFrom",
          "type": "address"
        },
        {
          "internalType": "contract IERC20Detailed",
          "name": "assetToSwapTo",
          "type": "address"
        },
        {
          "internalType": "uint256",
          "name": "amountToSwap",
          "type": "uint256"
        },
        {
          "internalType": "uint256",
          "name": "minAmountToReceive",
          "type": "uint256"
        },
        {
          "internalType": "uint256",
          "name": "swapAllBalanceOffset",
          "type": "uint256"
        },
        {
          "internalType": "bytes",
          "name": "swapCalldata",
          "type": "bytes"
        },
        {
          "internalType": "contract IParaSwapAugustus",
          "name": "augustus",
          "type": "address"
        },
        {
          "components": [
            {
              "internalType": "uint256",
              "name": "amount",
              "type": "uint256"
            },
            {
              "internalType": "uint256",
              "name": "deadline",
              "type": "uint256"
            },
            {
              "internalType": "uint8",
              "name": "v",
              "type": "uint8"
            },
            {
              "internalType": "bytes32",
              "name": "r",
              "type": "bytes32"
            },
            {
              "internalType": "bytes32",
              "name": "s",
              "type": "bytes32"
            }
          ],
          "internalType": "struct BaseParaSwapAdapter.PermitSignature",
          "name": "permitParams",
          "type": "tuple"
        }
      ],
      "name": "withdrawAndSwap",
      "outputs": [],
      "stateMutability": "nonpayable",
      "type": "function"
    }
  ],
  "transactionHash": "0xc5b329dfa17d9df5fa33c9d9e780bbf81cbcafbfc37bcf22fe3a4dc3514d05ae",
  "args": [
    "0xc48790B692B6e622d494d09317F1450e21DBa4b4",
    "0xdC6E2b14260F972ad4e5a31c68294Fba7E720701",
    "0xd955F0c167adbf7d553fc4D59A964A1b115Cc093"
  ],
  "numDeployments": 1,
  "solcInputHash": "fbd0f26b648da936f7e03657ef800047",
  "bytecode": "0x6101006040523480156200001257600080fd5b5060405162002a8138038062002a81833981016040819052620000359162000328565b82828180806001600160a01b03166080816001600160a01b031681525050806001600160a01b031663026b1d5f6040518163ffffffff1660e01b8152600401602060405180830381865afa15801562000092573d6000803e3d6000fd5b505050506040513d601f19601f82011682018060405250810190620000b891906200037c565b6001600160a01b031660a05250600080546001600160a01b0319163390811782556040519091829160008051602062002a61833981519152908290a350806001600160a01b031663fca513a86040518163ffffffff1660e01b8152600401602060405180830381865afa15801562000134573d6000803e3d6000fd5b505050506040513d601f19601f820116820180604052508101906200015a91906200037c565b6001600160a01b0390811660c05260405163fb04e17b60e01b815260006004820152908316915063fb04e17b90602401602060405180830381865afa158015620001a8573d6000803e3d6000fd5b505050506040513d601f19601f82011682018060405250810190620001ce9190620003a3565b15620001d957600080fd5b6001600160a01b031660e0525060018055620001f581620001fe565b505050620003c7565b6000546001600160a01b031633146200025e5760405162461bcd60e51b815260206004820181905260248201527f4f776e61626c653a2063616c6c6572206973206e6f7420746865206f776e657260448201526064015b60405180910390fd5b6001600160a01b038116620002c55760405162461bcd60e51b815260206004820152602660248201527f4f776e61626c653a206e6577206f776e657220697320746865207a65726f206160448201526564647265737360d01b606482015260840162000255565b600080546040516001600160a01b038085169392169160008051602062002a6183398151915291a3600080546001600160a01b0319166001600160a01b0392909216919091179055565b6001600160a01b03811681146200032557600080fd5b50565b6000806000606084860312156200033e57600080fd5b83516200034b816200030f565b60208501519093506200035e816200030f565b604085015190925062000371816200030f565b809150509250925092565b6000602082840312156200038f57600080fd5b81516200039c816200030f565b9392505050565b600060208284031215620003b657600080fd5b815180151581146200039c57600080fd5b60805160a05160c05160e0516126456200041c600039600081816101990152610da201526000818161017201526118f80152600081816101db01528181610ac80152610c7d0152600060e701526126456000f3fe608060405234801561001057600080fd5b50600436106100c85760003560e01c80633a829867116100815780637535d2461161005b5780637535d246146101d65780638da5cb5b146101fd578063f2fde38b1461021b57600080fd5b80633a829867146101945780635fd73e07146101bb578063715018a6146101ce57600080fd5b80631b11d0ff116100b25780631b11d0ff1461013357806332e4b2861461015657806338013f021461016d57600080fd5b8062ae3bf8146100cd5780630542975c146100e2575b600080fd5b6100e06100db366004611e8f565b61022e565b005b6101097f000000000000000000000000000000000000000000000000000000000000000081565b60405173ffffffffffffffffffffffffffffffffffffffff90911681526020015b60405180910390f35b610146610141366004611ef5565b610385565b604051901515815260200161012a565b61015f610bb881565b60405190815260200161012a565b6101097f000000000000000000000000000000000000000000000000000000000000000081565b6101097f000000000000000000000000000000000000000000000000000000000000000081565b6100e06101c9366004611f71565b61045b565b6100e0610689565b6101097f000000000000000000000000000000000000000000000000000000000000000081565b60005473ffffffffffffffffffffffffffffffffffffffff16610109565b6100e0610229366004611e8f565b610779565b60005473ffffffffffffffffffffffffffffffffffffffff1633146102b4576040517f08c379a000000000000000000000000000000000000000000000000000000000815260206004820181905260248201527f4f776e61626c653a2063616c6c6572206973206e6f7420746865206f776e657260448201526064015b60405180910390fd5b6103826102d660005473ffffffffffffffffffffffffffffffffffffffff1690565b6040517f70a0823100000000000000000000000000000000000000000000000000000000815230600482015273ffffffffffffffffffffffffffffffffffffffff8416906370a0823190602401602060405180830381865afa158015610340573d6000803e3d6000fd5b505050506040513d601f19601f820116820180604052508101906103649190612043565b73ffffffffffffffffffffffffffffffffffffffff8416919061092a565b50565b6000600260015414156103f4576040517f08c379a000000000000000000000000000000000000000000000000000000000815260206004820152601f60248201527f5265656e7472616e637947756172643a207265656e7472616e742063616c6c0060448201526064016102ab565b60026001556040517f08c379a000000000000000000000000000000000000000000000000000000000815260206004820152600d60248201527f4e4f545f535550504f525445440000000000000000000000000000000000000060448201526064016102ab565b600260015414156104c8576040517f08c379a000000000000000000000000000000000000000000000000000000000815260206004820152601f60248201527f5265656e7472616e637947756172643a207265656e7472616e742063616c6c0060448201526064016102ab565b600260015560006104d88a610a03565b6101000151905085156105e5576040517f70a0823100000000000000000000000000000000000000000000000000000000815233600482015260009073ffffffffffffffffffffffffffffffffffffffff8316906370a0823190602401602060405180830381865afa158015610552573d6000803e3d6000fd5b505050506040513d601f19601f820116820180604052508101906105769190612043565b9050888111156105e2576040517f08c379a000000000000000000000000000000000000000000000000000000000815260206004820152601b60248201527f494e53554646494349454e545f414d4f554e545f544f5f53574150000000000060448201526064016102ab565b97505b6106008a82338b6105fb368890038801886120bc565b610b3a565b60006106558787878080601f016020809104026020016040519081016040528093929190818152602001838380828437600081840152601f19601f82011690508083019250505050505050868e8e8e8e610d5a565b905061067873ffffffffffffffffffffffffffffffffffffffff8b16338361154e565b505060018055505050505050505050565b60005473ffffffffffffffffffffffffffffffffffffffff16331461070a576040517f08c379a000000000000000000000000000000000000000000000000000000000815260206004820181905260248201527f4f776e61626c653a2063616c6c6572206973206e6f7420746865206f776e657260448201526064016102ab565b6000805460405173ffffffffffffffffffffffffffffffffffffffff909116907f8be0079c531659141344cd1fd0a4f28419497f9722a3daafe3b4186f6b6457e0908390a3600080547fffffffffffffffffffffffff0000000000000000000000000000000000000000169055565b60005473ffffffffffffffffffffffffffffffffffffffff1633146107fa576040517f08c379a000000000000000000000000000000000000000000000000000000000815260206004820181905260248201527f4f776e61626c653a2063616c6c6572206973206e6f7420746865206f776e657260448201526064016102ab565b73ffffffffffffffffffffffffffffffffffffffff811661089d576040517f08c379a000000000000000000000000000000000000000000000000000000000815260206004820152602660248201527f4f776e61626c653a206e6577206f776e657220697320746865207a65726f206160448201527f646472657373000000000000000000000000000000000000000000000000000060648201526084016102ab565b6000805460405173ffffffffffffffffffffffffffffffffffffffff808516939216917f8be0079c531659141344cd1fd0a4f28419497f9722a3daafe3b4186f6b6457e091a3600080547fffffffffffffffffffffffff00000000000000000000000000000000000000001673ffffffffffffffffffffffffffffffffffffffff92909216919091179055565b6040517fa9059cbb0000000000000000000000000000000000000000000000000000000080825273ffffffffffffffffffffffffffffffffffffffff84166004830152602482018390529060008060448382895af161098d573d6000803e3d6000fd5b5061099784611627565b6109fd576040517f08c379a000000000000000000000000000000000000000000000000000000000815260206004820152601560248201527f475076323a206661696c6564207472616e73666572000000000000000000000060448201526064016102ab565b50505050565b604080516102008101825260006101e08201818152825260208201819052918101829052606081018290526080810182905260a0810182905260c0810182905260e08101829052610100810182905261012081018290526101408101829052610160810182905261018081018290526101a081018290526101c08101919091526040517f35ea6a7500000000000000000000000000000000000000000000000000000000815273ffffffffffffffffffffffffffffffffffffffff83811660048301527f000000000000000000000000000000000000000000000000000000000000000016906335ea6a75906024016101e060405180830381865afa158015610b10573d6000803e3d6000fd5b505050506040513d601f19601f82011682018060405250810190610b34919061221b565b92915050565b602081015115610c0757805160208201516040808401516060850151608086015192517fd505accf00000000000000000000000000000000000000000000000000000000815273ffffffffffffffffffffffffffffffffffffffff89811660048301523060248301526044820196909652606481019490945260ff909116608484015260a483015260c48201529085169063d505accf9060e401600060405180830381600087803b158015610bee57600080fd5b505af1158015610c02573d6000803e3d6000fd5b505050505b610c2973ffffffffffffffffffffffffffffffffffffffff85168430856116f3565b6040517f69328dec00000000000000000000000000000000000000000000000000000000815273ffffffffffffffffffffffffffffffffffffffff86811660048301526024820184905230604483015283917f0000000000000000000000000000000000000000000000000000000000000000909116906369328dec906064016020604051808303816000875af1158015610cc8573d6000803e3d6000fd5b505050506040513d601f19601f82011682018060405250810190610cec9190612043565b14610d53576040517f08c379a000000000000000000000000000000000000000000000000000000000815260206004820152601b60248201527f554e45585045435445445f414d4f554e545f57495448445241574e000000000060448201526064016102ab565b5050505050565b6040517ffb04e17b00000000000000000000000000000000000000000000000000000000815273ffffffffffffffffffffffffffffffffffffffff86811660048301526000917f00000000000000000000000000000000000000000000000000000000000000009091169063fb04e17b90602401602060405180830381865afa158015610deb573d6000803e3d6000fd5b505050506040513d601f19601f82011682018060405250810190610e0f919061233e565b610e75576040517f08c379a000000000000000000000000000000000000000000000000000000000815260206004820152601060248201527f494e56414c49445f41554755535455530000000000000000000000000000000060448201526064016102ab565b6000610e80866117ce565b60ff1690506000610e90866117ce565b60ff1690506000610ea0886118b0565b90506000610ead886118b0565b90506000610f05610ec2610bb861271061238f565b610eff610eda610ed389600a6124c6565b8690611965565b610ef9610ef2610eeb8a600a6124c6565b8990611965565b8d90611965565b9061198f565b906119a2565b905086811115610f71576040517f08c379a000000000000000000000000000000000000000000000000000000000815260206004820152601f60248201527f4d494e5f414d4f554e545f455843454544535f4d41585f534c4950504147450060448201526064016102ab565b50506040517f70a082310000000000000000000000000000000000000000000000000000000081523060048201526000935073ffffffffffffffffffffffffffffffffffffffff891692506370a082319150602401602060405180830381865afa158015610fe3573d6000803e3d6000fd5b505050506040513d601f19601f820116820180604052508101906110079190612043565b905083811015611073576040517f08c379a000000000000000000000000000000000000000000000000000000000815260206004820181905260248201527f494e53554646494349454e545f42414c414e43455f4245464f52455f5357415060448201526064016102ab565b6040517f70a0823100000000000000000000000000000000000000000000000000000000815230600482015260009073ffffffffffffffffffffffffffffffffffffffff8716906370a0823190602401602060405180830381865afa1580156110e0573d6000803e3d6000fd5b505050506040513d601f19601f820116820180604052508101906111049190612043565b905060008873ffffffffffffffffffffffffffffffffffffffff1663d2c4b5986040518163ffffffff1660e01b8152600401602060405180830381865afa158015611153573d6000803e3d6000fd5b505050506040513d601f19601f8201168201806040525081019061117791906124d2565b905061119b73ffffffffffffffffffffffffffffffffffffffff89168260006119e5565b6111bc73ffffffffffffffffffffffffffffffffffffffff891682886119e5565b8a1561124e5760048b101580156111df575089516111db906020611b67565b8b11155b611245576040517f08c379a000000000000000000000000000000000000000000000000000000000815260206004820152601f60248201527f46524f4d5f414d4f554e545f4f46465345545f4f55545f4f465f52414e47450060448201526064016102ab565b8560208c018b01525b60008973ffffffffffffffffffffffffffffffffffffffff168b604051611275919061251b565b6000604051808303816000865af19150503d80600081146112b2576040519150601f19603f3d011682016040523d82523d6000602084013e6112b7565b606091505b50509050806112ca573d6000803e3d6000fd5b6112d4878561238f565b6040517f70a0823100000000000000000000000000000000000000000000000000000000815230600482015273ffffffffffffffffffffffffffffffffffffffff8b16906370a0823190602401602060405180830381865afa15801561133e573d6000803e3d6000fd5b505050506040513d601f19601f820116820180604052508101906113629190612043565b146113c9576040517f08c379a000000000000000000000000000000000000000000000000000000000815260206004820152601860248201527f57524f4e475f42414c414e43455f41465445525f53574150000000000000000060448201526064016102ab565b6040517f70a0823100000000000000000000000000000000000000000000000000000000815230600482015261146390849073ffffffffffffffffffffffffffffffffffffffff8b16906370a0823190602401602060405180830381865afa158015611439573d6000803e3d6000fd5b505050506040513d601f19601f8201168201806040525081019061145d9190612043565b90611b67565b9450858510156114cf576040517f08c379a000000000000000000000000000000000000000000000000000000000815260206004820152601c60248201527f494e53554646494349454e545f414d4f554e545f52454345495645440000000060448201526064016102ab565b8773ffffffffffffffffffffffffffffffffffffffff168973ffffffffffffffffffffffffffffffffffffffff167fa078c4190abe07940190effc1846be0ccf03ad6007bc9e93f9697d0b460befbb8988604051611537929190918252602082015260400190565b60405180910390a350505050979650505050505050565b60405173ffffffffffffffffffffffffffffffffffffffff83166024820152604481018290526116229084907fa9059cbb00000000000000000000000000000000000000000000000000000000906064015b604080517fffffffffffffffffffffffffffffffffffffffffffffffffffffffffffffffe08184030181529190526020810180517bffffffffffffffffffffffffffffffffffffffffffffffffffffffff167fffffffff0000000000000000000000000000000000000000000000000000000090931692909217909152611b77565b505050565b6000611667565b7f08c379a00000000000000000000000000000000000000000000000000000000060005260206004528060245250806044525060646000fd5b3d80156116a657602081146116e0576116a17f475076323a206d616c666f726d6564207472616e7366657220726573756c7400601f61162e565b6116ed565b823b6116d7576116d77f475076323a206e6f74206120636f6e7472616374000000000000000000000000601461162e565b600191506116ed565b3d6000803e600051151591505b50919050565b6040517f23b872dd0000000000000000000000000000000000000000000000000000000080825273ffffffffffffffffffffffffffffffffffffffff8581166004840152841660248301526044820183905290600080606483828a5af161175e573d6000803e3d6000fd5b5061176885611627565b610d53576040517f08c379a000000000000000000000000000000000000000000000000000000000815260206004820152601960248201527f475076323a206661696c6564207472616e7366657246726f6d0000000000000060448201526064016102ab565b6000808273ffffffffffffffffffffffffffffffffffffffff1663313ce5676040518163ffffffff1660e01b8152600401602060405180830381865afa15801561181c573d6000803e3d6000fd5b505050506040513d601f19601f820116820180604052508101906118409190612537565b9050604d8160ff161115610b34576040517f08c379a000000000000000000000000000000000000000000000000000000000815260206004820152601a60248201527f544f4f5f4d414e595f444543494d414c535f4f4e5f544f4b454e00000000000060448201526064016102ab565b6040517fb3596f0700000000000000000000000000000000000000000000000000000000815273ffffffffffffffffffffffffffffffffffffffff82811660048301526000917f00000000000000000000000000000000000000000000000000000000000000009091169063b3596f0790602401602060405180830381865afa158015611941573d6000803e3d6000fd5b505050506040513d601f19601f82011682018060405250810190610b349190612043565b60008215806119865750508181028183828161198357611983612554565b04145b610b3457600080fd5b600061199b8284612583565b9392505050565b600081157fffffffffffffffffffffffffffffffffffffffffffffffffffffffffffffec77839004841115176119d757600080fd5b506127109102611388010490565b801580611a8557506040517fdd62ed3e00000000000000000000000000000000000000000000000000000000815230600482015273ffffffffffffffffffffffffffffffffffffffff838116602483015284169063dd62ed3e90604401602060405180830381865afa158015611a5f573d6000803e3d6000fd5b505050506040513d601f19601f82011682018060405250810190611a839190612043565b155b611b11576040517f08c379a000000000000000000000000000000000000000000000000000000000815260206004820152603660248201527f5361666545524332303a20617070726f76652066726f6d206e6f6e2d7a65726f60448201527f20746f206e6f6e2d7a65726f20616c6c6f77616e63650000000000000000000060648201526084016102ab565b60405173ffffffffffffffffffffffffffffffffffffffff83166024820152604481018290526116229084907f095ea7b300000000000000000000000000000000000000000000000000000000906064016115a0565b80820382811115610b3457600080fd5b6000611bd9826040518060400160405280602081526020017f5361666545524332303a206c6f772d6c6576656c2063616c6c206661696c65648152508573ffffffffffffffffffffffffffffffffffffffff16611c839092919063ffffffff16565b8051909150156116225780806020019051810190611bf7919061233e565b611622576040517f08c379a000000000000000000000000000000000000000000000000000000000815260206004820152602a60248201527f5361666545524332303a204552433230206f7065726174696f6e20646964206e60448201527f6f7420737563636565640000000000000000000000000000000000000000000060648201526084016102ab565b6060611c928484600085611c9a565b949350505050565b606082471015611d2c576040517f08c379a000000000000000000000000000000000000000000000000000000000815260206004820152602660248201527f416464726573733a20696e73756666696369656e742062616c616e636520666f60448201527f722063616c6c000000000000000000000000000000000000000000000000000060648201526084016102ab565b843b611d94576040517f08c379a000000000000000000000000000000000000000000000000000000000815260206004820152601d60248201527f416464726573733a2063616c6c20746f206e6f6e2d636f6e747261637400000060448201526064016102ab565b6000808673ffffffffffffffffffffffffffffffffffffffff168587604051611dbd919061251b565b60006040518083038185875af1925050503d8060008114611dfa576040519150601f19603f3d011682016040523d82523d6000602084013e611dff565b606091505b5091509150611e0f828286611e1a565b979650505050505050565b60608315611e2957508161199b565b825115611e395782518084602001fd5b816040517f08c379a00000000000000000000000000000000000000000000000000000000081526004016102ab91906125be565b73ffffffffffffffffffffffffffffffffffffffff8116811461038257600080fd5b600060208284031215611ea157600080fd5b813561199b81611e6d565b60008083601f840112611ebe57600080fd5b50813567ffffffffffffffff811115611ed657600080fd5b602083019150836020828501011115611eee57600080fd5b9250929050565b60008060008060008060a08789031215611f0e57600080fd5b8635611f1981611e6d565b955060208701359450604087013593506060870135611f3781611e6d565b9250608087013567ffffffffffffffff811115611f5357600080fd5b611f5f89828a01611eac565b979a9699509497509295939492505050565b6000806000806000806000806000898b03610180811215611f9157600080fd5b8a35611f9c81611e6d565b995060208b0135611fac81611e6d565b985060408b0135975060608b0135965060808b0135955060a08b013567ffffffffffffffff811115611fdd57600080fd5b611fe98d828e01611eac565b90965094505060c08b0135611ffd81611e6d565b925060a07fffffffffffffffffffffffffffffffffffffffffffffffffffffffffffffff208201121561202f57600080fd5b5060e08a0190509295985092959850929598565b60006020828403121561205557600080fd5b5051919050565b6040516101e0810167ffffffffffffffff811182821017156120a7577f4e487b7100000000000000000000000000000000000000000000000000000000600052604160045260246000fd5b60405290565b60ff8116811461038257600080fd5b600060a082840312156120ce57600080fd5b60405160a0810181811067ffffffffffffffff82111715612118577f4e487b7100000000000000000000000000000000000000000000000000000000600052604160045260246000fd5b806040525082358152602083013560208201526040830135612139816120ad565b6040820152606083810135908201526080928301359281019290925250919050565b60006020828403121561216d57600080fd5b6040516020810181811067ffffffffffffffff821117156121b7577f4e487b7100000000000000000000000000000000000000000000000000000000600052604160045260246000fd5b6040529151825250919050565b80516fffffffffffffffffffffffffffffffff811681146121e457600080fd5b919050565b805164ffffffffff811681146121e457600080fd5b805161ffff811681146121e457600080fd5b80516121e481611e6d565b60006101e0828403121561222e57600080fd5b61223661205c565b612240848461215b565b815261224e602084016121c4565b602082015261225f604084016121c4565b6040820152612270606084016121c4565b6060820152612281608084016121c4565b608082015261229260a084016121c4565b60a08201526122a360c084016121e9565b60c08201526122b460e084016121fe565b60e08201526101006122c7818501612210565b908201526101206122d9848201612210565b908201526101406122eb848201612210565b908201526101606122fd848201612210565b9082015261018061230f8482016121c4565b908201526101a06123218482016121c4565b908201526101c06123338482016121c4565b908201529392505050565b60006020828403121561235057600080fd5b8151801515811461199b57600080fd5b7f4e487b7100000000000000000000000000000000000000000000000000000000600052601160045260246000fd5b6000828210156123a1576123a1612360565b500390565b600181815b808511156123ff57817fffffffffffffffffffffffffffffffffffffffffffffffffffffffffffffffff048211156123e5576123e5612360565b808516156123f257918102915b93841c93908002906123ab565b509250929050565b60008261241657506001610b34565b8161242357506000610b34565b816001811461243957600281146124435761245f565b6001915050610b34565b60ff84111561245457612454612360565b50506001821b610b34565b5060208310610133831016604e8410600b8410161715612482575081810a610b34565b61248c83836123a6565b807fffffffffffffffffffffffffffffffffffffffffffffffffffffffffffffffff048211156124be576124be612360565b029392505050565b600061199b8383612407565b6000602082840312156124e457600080fd5b815161199b81611e6d565b60005b8381101561250a5781810151838201526020016124f2565b838111156109fd5750506000910152565b6000825161252d8184602087016124ef565b9190910192915050565b60006020828403121561254957600080fd5b815161199b816120ad565b7f4e487b7100000000000000000000000000000000000000000000000000000000600052601260045260246000fd5b6000826125b9577f4e487b7100000000000000000000000000000000000000000000000000000000600052601260045260246000fd5b500490565b60208152600082518060208401526125dd8160408501602087016124ef565b601f017fffffffffffffffffffffffffffffffffffffffffffffffffffffffffffffffe016919091016040019291505056fea2646970667358221220ca1d19f9eec1fabc4d2916da1b3c141c2bf70cb526f9dc723cbbd012a38bf6ae64736f6c634300080a00338be0079c531659141344cd1fd0a4f28419497f9722a3daafe3b4186f6b6457e0",
  "devdoc": {
    "kind": "dev",
    "methods": {
      "owner()": {
        "details": "Returns the address of the current owner."
      },
      "renounceOwnership()": {
        "details": "Leaves the contract without owner. It will not be possible to call `onlyOwner` functions anymore. Can only be called by the current owner. NOTE: Renouncing ownership will leave the contract without an owner, thereby removing any functionality that is only available to the owner."
      },
      "rescueTokens(address)": {
        "details": "Emergency rescue for token stucked on this contract, as failsafe mechanism - Funds should never remain in this contract more time than during transactions - Only callable by the owner"
      },
      "transferOwnership(address)": {
        "details": "Transfers ownership of the contract to a new account (`newOwner`). Can only be called by the current owner."
      },
      "withdrawAndSwap(address,address,uint256,uint256,uint256,bytes,address,(uint256,uint256,uint8,bytes32,bytes32))": {
        "details": "Swaps an amount of an asset to another after a withdraw and transfers the new asset to the user. The user should give this contract allowance to pull the ATokens in order to withdraw the underlying asset and perform the swap.",
        "params": {
          "amountToSwap": "Amount to be swapped, or maximum amount when swapping all balance",
          "assetToSwapFrom": "Address of the underlying asset to be swapped from",
          "assetToSwapTo": "Address of the underlying asset to be swapped to",
          "augustus": "Address of ParaSwap's AugustusSwapper contract",
          "minAmountToReceive": "Minimum amount to be received from the swap",
          "permitParams": "Struct containing the permit signatures, set to all zeroes if not used",
          "swapAllBalanceOffset": "Set to offset of fromAmount in Augustus calldata if wanting to swap all balance, otherwise 0",
          "swapCalldata": "Calldata for ParaSwap's AugustusSwapper contract"
        }
      }
    },
    "version": 1
  },
  "userdoc": {
    "kind": "user",
    "methods": {},
    "version": 1
  },
  "storageLayout": {
    "storage": [
      {
        "astId": 1472,
        "contract": "@aave/periphery-v3/contracts/adapters/paraswap/ParaSwapWithdrawSwapAdapter.sol:ParaSwapWithdrawSwapAdapter",
        "label": "_owner",
        "offset": 0,
        "slot": "0",
        "type": "t_address"
      },
      {
        "astId": 32429,
        "contract": "@aave/periphery-v3/contracts/adapters/paraswap/ParaSwapWithdrawSwapAdapter.sol:ParaSwapWithdrawSwapAdapter",
        "label": "_status",
        "offset": 0,
        "slot": "1",
        "type": "t_uint256"
      }
    ],
    "types": {
      "t_address": {
        "encoding": "inplace",
        "label": "address",
        "numberOfBytes": "20"
      },
      "t_uint256": {
        "encoding": "inplace",
        "label": "uint256",
        "numberOfBytes": "32"
      }
    }
  }
}